{
  "_format": "hh-sol-artifact-1",
  "contractName": "vPair",
  "sourceName": "contracts/vPair.sol",
  "abi": [
    {
      "inputs": [],
      "stateMutability": "nonpayable",
      "type": "constructor"
    },
    {
      "anonymous": false,
      "inputs": [
        {
          "indexed": false,
          "internalType": "address[]",
          "name": "tokens",
          "type": "address[]"
        }
      ],
      "name": "AllowListChanged",
      "type": "event"
    },
    {
      "anonymous": false,
      "inputs": [
        {
          "indexed": true,
          "internalType": "address",
          "name": "owner",
          "type": "address"
        },
        {
          "indexed": true,
          "internalType": "address",
          "name": "spender",
          "type": "address"
        },
        {
          "indexed": false,
          "internalType": "uint256",
          "name": "value",
          "type": "uint256"
        }
      ],
      "name": "Approval",
      "type": "event"
    },
    {
      "anonymous": false,
      "inputs": [
        {
          "indexed": false,
          "internalType": "uint256",
          "name": "_newBlocksDelay",
          "type": "uint256"
        }
      ],
      "name": "BlocksDelayChanged",
      "type": "event"
    },
    {
      "anonymous": false,
      "inputs": [
        {
          "indexed": true,
          "internalType": "address",
          "name": "sender",
          "type": "address"
        },
        {
          "indexed": false,
          "internalType": "uint256",
          "name": "amount0",
          "type": "uint256"
        },
        {
          "indexed": false,
          "internalType": "uint256",
          "name": "amount1",
          "type": "uint256"
        },
        {
          "indexed": true,
          "internalType": "address",
          "name": "to",
          "type": "address"
        },
        {
          "indexed": false,
          "internalType": "uint256",
          "name": "totalSupply",
          "type": "uint256"
        }
      ],
      "name": "Burn",
      "type": "event"
    },
    {
      "anonymous": false,
      "inputs": [
        {
          "indexed": false,
          "internalType": "uint16",
          "name": "fee",
          "type": "uint16"
        },
        {
          "indexed": false,
          "internalType": "uint16",
          "name": "vFee",
          "type": "uint16"
        }
      ],
      "name": "FeeChanged",
      "type": "event"
    },
    {
      "anonymous": false,
      "inputs": [
        {
          "indexed": true,
          "internalType": "address",
          "name": "sender",
          "type": "address"
        },
        {
          "indexed": false,
          "internalType": "uint256",
          "name": "amount0",
          "type": "uint256"
        },
        {
          "indexed": false,
          "internalType": "uint256",
          "name": "amount1",
          "type": "uint256"
        },
        {
          "indexed": false,
          "internalType": "uint256",
          "name": "lpTokens",
          "type": "uint256"
        },
        {
          "indexed": false,
          "internalType": "uint256",
          "name": "poolLPTokens",
          "type": "uint256"
        }
      ],
      "name": "Mint",
      "type": "event"
    },
    {
      "anonymous": false,
      "inputs": [
        {
          "indexed": false,
          "internalType": "uint256",
          "name": "_newReserveRatioWarningThreshold",
          "type": "uint256"
        }
      ],
      "name": "ReserveRatioWarningThresholdChanged",
      "type": "event"
    },
    {
      "anonymous": false,
      "inputs": [
        {
          "indexed": false,
          "internalType": "address",
          "name": "asset",
          "type": "address"
        },
        {
          "indexed": false,
          "internalType": "uint256",
          "name": "balance",
          "type": "uint256"
        },
        {
          "indexed": false,
          "internalType": "uint256",
          "name": "rRatio",
          "type": "uint256"
        }
      ],
      "name": "ReserveSync",
      "type": "event"
    },
    {
      "anonymous": false,
      "inputs": [
        {
          "indexed": false,
          "internalType": "uint256",
          "name": "newThreshold",
          "type": "uint256"
        }
      ],
      "name": "ReserveThresholdChanged",
      "type": "event"
    },
    {
      "anonymous": false,
      "inputs": [
        {
          "indexed": true,
          "internalType": "address",
          "name": "sender",
          "type": "address"
        },
        {
          "indexed": false,
          "internalType": "address",
          "name": "tokenIn",
          "type": "address"
        },
        {
          "indexed": false,
          "internalType": "address",
          "name": "tokenOut",
          "type": "address"
        },
        {
          "indexed": false,
          "internalType": "uint256",
          "name": "amountIn",
          "type": "uint256"
        },
        {
          "indexed": false,
          "internalType": "uint256",
          "name": "amountOut",
          "type": "uint256"
        },
        {
          "indexed": true,
          "internalType": "address",
          "name": "to",
          "type": "address"
        }
      ],
      "name": "Swap",
      "type": "event"
    },
    {
      "anonymous": false,
      "inputs": [
        {
          "indexed": true,
          "internalType": "address",
          "name": "sender",
          "type": "address"
        },
        {
          "indexed": false,
          "internalType": "address",
          "name": "tokenIn",
          "type": "address"
        },
        {
          "indexed": false,
          "internalType": "address",
          "name": "tokenOut",
          "type": "address"
        },
        {
          "indexed": false,
          "internalType": "uint256",
          "name": "amountIn",
          "type": "uint256"
        },
        {
          "indexed": false,
          "internalType": "uint256",
          "name": "amountOut",
          "type": "uint256"
        },
        {
          "indexed": false,
          "internalType": "address",
          "name": "ikPool",
          "type": "address"
        },
        {
          "indexed": true,
          "internalType": "address",
          "name": "to",
          "type": "address"
        }
      ],
      "name": "SwapReserve",
      "type": "event"
    },
    {
      "anonymous": false,
      "inputs": [
        {
          "indexed": true,
          "internalType": "address",
          "name": "from",
          "type": "address"
        },
        {
          "indexed": true,
          "internalType": "address",
          "name": "to",
          "type": "address"
        },
        {
          "indexed": false,
          "internalType": "uint256",
          "name": "value",
          "type": "uint256"
        }
      ],
      "name": "Transfer",
      "type": "event"
    },
    {
      "anonymous": false,
      "inputs": [
        {
          "indexed": false,
          "internalType": "uint112",
          "name": "balance0",
          "type": "uint112"
        },
        {
          "indexed": false,
          "internalType": "uint112",
          "name": "balance1",
          "type": "uint112"
        }
      ],
      "name": "vSync",
      "type": "event"
    },
    {
      "inputs": [
        {
          "internalType": "uint256",
          "name": "",
          "type": "uint256"
        }
      ],
      "name": "allowList",
      "outputs": [
        {
          "internalType": "address",
          "name": "",
          "type": "address"
        }
      ],
      "stateMutability": "view",
      "type": "function"
    },
    {
      "inputs": [],
      "name": "allowListLength",
      "outputs": [
        {
          "internalType": "uint256",
          "name": "",
          "type": "uint256"
        }
      ],
      "stateMutability": "view",
      "type": "function"
    },
    {
      "inputs": [
        {
          "internalType": "address",
          "name": "",
          "type": "address"
        }
      ],
      "name": "allowListMap",
      "outputs": [
        {
          "internalType": "bool",
          "name": "",
          "type": "bool"
        }
      ],
      "stateMutability": "view",
      "type": "function"
    },
    {
      "inputs": [
        {
          "internalType": "address",
          "name": "owner",
          "type": "address"
        },
        {
          "internalType": "address",
          "name": "spender",
          "type": "address"
        }
      ],
      "name": "allowance",
      "outputs": [
        {
          "internalType": "uint256",
          "name": "",
          "type": "uint256"
        }
      ],
      "stateMutability": "view",
      "type": "function"
    },
    {
      "inputs": [
        {
          "internalType": "address",
          "name": "spender",
          "type": "address"
        },
        {
          "internalType": "uint256",
          "name": "amount",
          "type": "uint256"
        }
      ],
      "name": "approve",
      "outputs": [
        {
          "internalType": "bool",
          "name": "",
          "type": "bool"
        }
      ],
      "stateMutability": "nonpayable",
      "type": "function"
    },
    {
      "inputs": [
        {
          "internalType": "address",
          "name": "account",
          "type": "address"
        }
      ],
      "name": "balanceOf",
      "outputs": [
        {
          "internalType": "uint256",
          "name": "",
          "type": "uint256"
        }
      ],
      "stateMutability": "view",
      "type": "function"
    },
    {
      "inputs": [],
      "name": "blocksDelay",
      "outputs": [
        {
          "internalType": "uint128",
          "name": "",
          "type": "uint128"
        }
      ],
      "stateMutability": "view",
      "type": "function"
    },
    {
      "inputs": [
        {
          "internalType": "address",
          "name": "to",
          "type": "address"
        }
      ],
      "name": "burn",
      "outputs": [
        {
          "internalType": "uint256",
          "name": "amount0",
          "type": "uint256"
        },
        {
          "internalType": "uint256",
          "name": "amount1",
          "type": "uint256"
        }
      ],
      "stateMutability": "nonpayable",
      "type": "function"
    },
    {
      "inputs": [],
      "name": "calculateReserveRatio",
      "outputs": [
        {
          "internalType": "uint256",
          "name": "rRatio",
          "type": "uint256"
        }
      ],
      "stateMutability": "view",
      "type": "function"
    },
    {
      "inputs": [],
      "name": "closed",
      "outputs": [
        {
          "internalType": "bool",
          "name": "",
          "type": "bool"
        }
      ],
      "stateMutability": "view",
      "type": "function"
    },
    {
      "inputs": [],
      "name": "decimals",
      "outputs": [
        {
          "internalType": "uint8",
          "name": "",
          "type": "uint8"
        }
      ],
      "stateMutability": "view",
      "type": "function"
    },
    {
      "inputs": [
        {
          "internalType": "address",
          "name": "spender",
          "type": "address"
        },
        {
          "internalType": "uint256",
          "name": "subtractedValue",
          "type": "uint256"
        }
      ],
      "name": "decreaseAllowance",
      "outputs": [
        {
          "internalType": "bool",
          "name": "",
          "type": "bool"
        }
      ],
      "stateMutability": "nonpayable",
      "type": "function"
    },
    {
      "inputs": [],
      "name": "emergencyToggle",
      "outputs": [],
      "stateMutability": "nonpayable",
      "type": "function"
    },
    {
      "inputs": [],
      "name": "factory",
      "outputs": [
        {
          "internalType": "address",
          "name": "",
          "type": "address"
        }
      ],
      "stateMutability": "view",
      "type": "function"
    },
    {
      "inputs": [],
      "name": "fee",
      "outputs": [
        {
          "internalType": "uint16",
          "name": "",
          "type": "uint16"
        }
      ],
      "stateMutability": "view",
      "type": "function"
    },
    {
      "inputs": [],
      "name": "getBalances",
      "outputs": [
        {
          "internalType": "uint112",
          "name": "_balance0",
          "type": "uint112"
        },
        {
          "internalType": "uint112",
          "name": "_balance1",
          "type": "uint112"
        }
      ],
      "stateMutability": "view",
      "type": "function"
    },
    {
      "inputs": [],
      "name": "getTokens",
      "outputs": [
        {
          "internalType": "address",
          "name": "_token0",
          "type": "address"
        },
        {
          "internalType": "address",
          "name": "_token1",
          "type": "address"
        }
      ],
      "stateMutability": "view",
      "type": "function"
    },
    {
      "inputs": [
        {
          "internalType": "address",
          "name": "spender",
          "type": "address"
        },
        {
          "internalType": "uint256",
          "name": "addedValue",
          "type": "uint256"
        }
      ],
      "name": "increaseAllowance",
      "outputs": [
        {
          "internalType": "bool",
          "name": "",
          "type": "bool"
        }
      ],
      "stateMutability": "nonpayable",
      "type": "function"
    },
    {
      "inputs": [],
      "name": "lastSwapBlock",
      "outputs": [
        {
          "internalType": "uint128",
          "name": "",
          "type": "uint128"
        }
      ],
      "stateMutability": "view",
      "type": "function"
    },
    {
      "inputs": [
        {
          "internalType": "address",
          "name": "reserveToken",
          "type": "address"
        },
        {
          "internalType": "address",
          "name": "nativePool",
          "type": "address"
        }
      ],
      "name": "liquidateReserve",
      "outputs": [],
      "stateMutability": "nonpayable",
      "type": "function"
    },
    {
      "inputs": [],
      "name": "maxReserveRatio",
      "outputs": [
        {
          "internalType": "uint256",
          "name": "",
          "type": "uint256"
        }
      ],
      "stateMutability": "view",
      "type": "function"
    },
    {
      "inputs": [
        {
          "internalType": "address",
          "name": "to",
          "type": "address"
        }
      ],
      "name": "mint",
      "outputs": [
        {
          "internalType": "uint256",
          "name": "liquidity",
          "type": "uint256"
        }
      ],
      "stateMutability": "nonpayable",
      "type": "function"
    },
    {
      "inputs": [],
      "name": "name",
      "outputs": [
        {
          "internalType": "string",
          "name": "",
          "type": "string"
        }
      ],
      "stateMutability": "view",
      "type": "function"
    },
    {
      "inputs": [],
      "name": "pairBalance0",
      "outputs": [
        {
          "internalType": "uint112",
          "name": "",
          "type": "uint112"
        }
      ],
      "stateMutability": "view",
      "type": "function"
    },
    {
      "inputs": [],
      "name": "pairBalance1",
      "outputs": [
        {
          "internalType": "uint112",
          "name": "",
          "type": "uint112"
        }
      ],
      "stateMutability": "view",
      "type": "function"
    },
    {
      "inputs": [],
      "name": "reserveRatioFactor",
      "outputs": [
        {
          "internalType": "uint256",
          "name": "",
          "type": "uint256"
        }
      ],
      "stateMutability": "pure",
      "type": "function"
    },
    {
      "inputs": [],
      "name": "reserveRatioWarningThreshold",
      "outputs": [
        {
          "internalType": "uint256",
          "name": "",
          "type": "uint256"
        }
      ],
      "stateMutability": "view",
      "type": "function"
    },
    {
      "inputs": [
        {
          "internalType": "address",
          "name": "",
          "type": "address"
        }
      ],
      "name": "reserves",
      "outputs": [
        {
          "internalType": "uint256",
          "name": "",
          "type": "uint256"
        }
      ],
      "stateMutability": "view",
      "type": "function"
    },
    {
      "inputs": [
        {
          "internalType": "address",
          "name": "",
          "type": "address"
        }
      ],
      "name": "reservesBaseValue",
      "outputs": [
        {
          "internalType": "uint256",
          "name": "",
          "type": "uint256"
        }
      ],
      "stateMutability": "view",
      "type": "function"
    },
    {
      "inputs": [],
      "name": "reservesBaseValueSum",
      "outputs": [
        {
          "internalType": "uint256",
          "name": "",
          "type": "uint256"
        }
      ],
      "stateMutability": "view",
      "type": "function"
    },
    {
      "inputs": [
        {
          "internalType": "address[]",
          "name": "_allowList",
          "type": "address[]"
        }
      ],
      "name": "setAllowList",
      "outputs": [],
      "stateMutability": "nonpayable",
      "type": "function"
    },
    {
      "inputs": [
        {
          "internalType": "uint128",
          "name": "_newBlocksDelay",
          "type": "uint128"
        }
      ],
      "name": "setBlocksDelay",
      "outputs": [],
      "stateMutability": "nonpayable",
      "type": "function"
    },
    {
      "inputs": [
        {
          "internalType": "uint16",
          "name": "_fee",
          "type": "uint16"
        },
        {
          "internalType": "uint16",
          "name": "_vFee",
          "type": "uint16"
        }
      ],
      "name": "setFee",
      "outputs": [],
      "stateMutability": "nonpayable",
      "type": "function"
    },
    {
      "inputs": [
        {
          "internalType": "uint256",
          "name": "threshold",
          "type": "uint256"
        }
      ],
      "name": "setMaxReserveThreshold",
      "outputs": [],
      "stateMutability": "nonpayable",
      "type": "function"
    },
    {
      "inputs": [
        {
          "internalType": "uint256",
          "name": "_reserveRatioWarningThreshold",
          "type": "uint256"
        }
      ],
      "name": "setReserveRatioWarningThreshold",
      "outputs": [],
      "stateMutability": "nonpayable",
      "type": "function"
    },
    {
      "inputs": [
        {
          "internalType": "uint256",
          "name": "amountOut",
          "type": "uint256"
        },
        {
          "internalType": "address",
          "name": "tokenOut",
          "type": "address"
        },
        {
          "internalType": "address",
          "name": "to",
          "type": "address"
        },
        {
          "internalType": "bytes",
          "name": "data",
          "type": "bytes"
        }
      ],
      "name": "swapNative",
      "outputs": [
        {
          "internalType": "uint256",
          "name": "_amountIn",
          "type": "uint256"
        }
      ],
      "stateMutability": "nonpayable",
      "type": "function"
    },
    {
      "inputs": [
        {
          "internalType": "uint256",
          "name": "amountOut",
          "type": "uint256"
        },
        {
          "internalType": "address",
          "name": "ikPair",
          "type": "address"
        },
        {
          "internalType": "address",
          "name": "to",
          "type": "address"
        },
        {
          "internalType": "uint256",
          "name": "incentivesLimitPct",
          "type": "uint256"
        },
        {
          "internalType": "bytes",
          "name": "data",
          "type": "bytes"
        }
      ],
      "name": "swapNativeToReserve",
      "outputs": [
        {
          "internalType": "address",
          "name": "_leftoverToken",
          "type": "address"
        },
        {
          "internalType": "uint256",
          "name": "_leftoverAmount",
          "type": "uint256"
        }
      ],
      "stateMutability": "nonpayable",
      "type": "function"
    },
    {
      "inputs": [
        {
          "internalType": "uint256",
          "name": "amountOut",
          "type": "uint256"
        },
        {
          "internalType": "address",
          "name": "ikPair",
          "type": "address"
        },
        {
          "internalType": "address",
          "name": "to",
          "type": "address"
        },
        {
          "internalType": "bytes",
          "name": "data",
          "type": "bytes"
        }
      ],
      "name": "swapReserveToNative",
      "outputs": [
        {
          "internalType": "uint256",
          "name": "amountIn",
          "type": "uint256"
        }
      ],
      "stateMutability": "nonpayable",
      "type": "function"
    },
    {
      "inputs": [],
      "name": "symbol",
      "outputs": [
        {
          "internalType": "string",
          "name": "",
          "type": "string"
        }
      ],
      "stateMutability": "view",
      "type": "function"
    },
    {
      "inputs": [],
      "name": "token0",
      "outputs": [
        {
          "internalType": "address",
          "name": "",
          "type": "address"
        }
      ],
      "stateMutability": "view",
      "type": "function"
    },
    {
      "inputs": [],
      "name": "token1",
      "outputs": [
        {
          "internalType": "address",
          "name": "",
          "type": "address"
        }
      ],
      "stateMutability": "view",
      "type": "function"
    },
    {
      "inputs": [],
      "name": "totalSupply",
      "outputs": [
        {
          "internalType": "uint256",
          "name": "",
          "type": "uint256"
        }
      ],
      "stateMutability": "view",
      "type": "function"
    },
    {
      "inputs": [
        {
          "internalType": "address",
          "name": "to",
          "type": "address"
        },
        {
          "internalType": "uint256",
          "name": "amount",
          "type": "uint256"
        }
      ],
      "name": "transfer",
      "outputs": [
        {
          "internalType": "bool",
          "name": "",
          "type": "bool"
        }
      ],
      "stateMutability": "nonpayable",
      "type": "function"
    },
    {
      "inputs": [
        {
          "internalType": "address",
          "name": "from",
          "type": "address"
        },
        {
          "internalType": "address",
          "name": "to",
          "type": "address"
        },
        {
          "internalType": "uint256",
          "name": "amount",
          "type": "uint256"
        }
      ],
      "name": "transferFrom",
      "outputs": [
        {
          "internalType": "bool",
          "name": "",
          "type": "bool"
        }
      ],
      "stateMutability": "nonpayable",
      "type": "function"
    },
    {
      "inputs": [],
      "name": "vFee",
      "outputs": [
        {
          "internalType": "uint16",
          "name": "",
          "type": "uint16"
        }
      ],
      "stateMutability": "view",
      "type": "function"
    }
  ],
  "bytecode": "0x60e06040523480156200001157600080fd5b506001600381905550336001600160a01b0316630d19c79d6040518163ffffffff1660e01b815260040160c060405180830381865afa15801562000059573d6000803e3d6000fd5b505050506040513d601f19601f820116820180604052508101906200007f91906200011d565b600755600480546001600160e01b0316600160f01b61ffff9384160261ffff60e01b191617600160e01b93909216929092021790556001600160a01b0390811660c05290811660a0521660805261076c600855600580546001600160801b0316600560831b17905562000195565b80516001600160a01b03811681146200010557600080fd5b919050565b805161ffff811681146200010557600080fd5b60008060008060008060c087890312156200013757600080fd5b6200014287620000ed565b95506200015260208801620000ed565b94506200016260408801620000ed565b935062000172606088016200010a565b925062000182608088016200010a565b915060a087015190509295509295509295565b60805160a05160c051614a996200032a600039600081816106c20152818161074f01528181610c4801528181610f78015281816112dd015281816113b9015281816115a0015281816119460152818161219e015281816123ba015281816125a401528181612d76015281816130fb0152818161319e015261329d0152600081816103a50152818161069d01528181610c0a01528181610f39015281816110760152818161139001528181611562015281816119f90152818161217d0152818161238d0152818161258301528181612d4901528181612fc3015281816130bd015281816131630152818161323e01528181613277015281816132d001526134310152600081816107280152818161081701528181610911015281816109ad01528181610b3001528181610cb201528181610ddd015281816111720152818161160a0152818161173501528181611a6601528181611d0f01528181611e4f01528181611e7801528181611f1501528181612a6801528181612b1901528181612ddc01528181613e730152613f180152614a996000f3fe608060405234801561001057600080fd5b50600436106102fd5760003560e01c806370a082311161019c578063aa6ca808116100ee578063d66bd52411610097578063dd62ed3e11610071578063dd62ed3e146107b4578063ddca3f43146107ed578063e9dcafaa1461080257600080fd5b8063d66bd52414610779578063d832b87a14610799578063da33b3df146107a157600080fd5b8063c45a0155116100c8578063c45a015514610723578063d21220a71461074a578063d5d7b44b1461077157600080fd5b8063aa6ca8081461068f578063b5093541146106ed578063ba81c3851461070057600080fd5b806395d89b4111610150578063a457c2d71161012a578063a457c2d714610656578063a66395e614610669578063a9059cbb1461067c57600080fd5b806395d89b41146106015780639860691c1461063a57806399b64de11461064357600080fd5b80638858c753116101815780638858c753146105b657806389afcb44146105bf5780638a689784146105e757600080fd5b806370a082311461056d57806377c6a7151461059657600080fd5b8063313ce56711610255578063597e1fb5116102095780636447c35d116101e35780636447c35d1461051557806364be513f146105285780636a6278421461055a57600080fd5b8063597e1fb5146104e257806362a6d197146104ef57806363f19ea11461050257600080fd5b80634617a9371161023a5780634617a937146104875780634e44c32e1461048f578063591f09eb146104b757600080fd5b8063313ce56714610465578063395093511461047457600080fd5b806311d14c6b116102b7578063268c74e411610291578063268c74e4146104175780632a635b4e14610420578063300c947a1461045257600080fd5b806311d14c6b146103df57806318160ddd146103f257806323b872dd1461040457600080fd5b806306fdde03116102e857806306fdde031461033b578063095ea7b31461037d5780630dfe1681146103a057600080fd5b8062113e0814610302578062a5359814610331575b600080fd5b600454604080516001600160701b038084168252600160701b9093049092166020830152015b60405180910390f35b610339610815565b005b60408051808201909152600c81527f5669727475737761702d4c50000000000000000000000000000000000000000060208201525b604051610328919061435c565b61039061038b366004614387565b6108f5565b6040519015158152602001610328565b6103c77f000000000000000000000000000000000000000000000000000000000000000081565b6040516001600160a01b039091168152602001610328565b6103396103ed3660046143b3565b61090f565b6002545b604051908152602001610328565b6103906104123660046143dc565b610ac8565b6103f660075481565b61043361042e366004614466565b610aec565b604080516001600160a01b039093168352602083019190915201610328565b6103f66104603660046144e2565b6114d6565b60405160128152602001610328565b610390610482366004614387565b611c55565b6103f6611c94565b6004546104a490600160f01b900461ffff1681565b60405161ffff9091168152602001610328565b6005546104ca906001600160801b031681565b6040516001600160801b039091168152602001610328565b600b546103909060ff1681565b6103c76104fd366004614555565b611ce3565b610339610510366004614555565b611d0d565b6103396105233660046145df565b611e44565b60045461054290600160701b90046001600160701b031681565b6040516001600160701b039091168152602001610328565b6103f6610568366004614685565b61232e565b6103f661057b366004614685565b6001600160a01b031660009081526020819052604090205490565b6103f66105a4366004614685565b600c6020526000908152604090205481565b6103f660085481565b6105d26105cd366004614685565b612576565b60408051928352602083019190915201610328565b6005546104ca90600160801b90046001600160801b031681565b60408051808201909152600781527f56535741504c50000000000000000000000000000000000000000000000000006020820152610370565b6103f660065481565b6103396106513660046146b2565b612832565b610390610664366004614387565b612933565b610339610677366004614555565b6129dd565b61039061068a366004614387565b612a50565b604080516001600160a01b037f0000000000000000000000000000000000000000000000000000000000000000811682527f000000000000000000000000000000000000000000000000000000000000000016602082015201610328565b6103396106fb3660046146eb565b612a5e565b61039061070e366004614685565b600a6020526000908152604090205460ff1681565b6103c77f000000000000000000000000000000000000000000000000000000000000000081565b6103c77f000000000000000000000000000000000000000000000000000000000000000081565b6103f661304e565b6103f6610787366004614685565b600d6020526000908152604090205481565b6009546103f6565b600454610542906001600160701b031681565b6103f66107c23660046146eb565b6001600160a01b03918216600090815260016020908152604080832093909416825291909152205490565b6004546104a490600160e01b900461ffff1681565b6103f66108103660046144e2565b613067565b7f00000000000000000000000000000000000000000000000000000000000000006001600160a01b03166370905dce6040518163ffffffff1660e01b8152600401602060405180830381865afa158015610873573d6000803e3d6000fd5b505050506040513d601f19601f820116820180604052508101906108979190614724565b6001600160a01b0316336001600160a01b0316146108e15760405162461bcd60e51b81526020600482015260026024820152614f4560f01b60448201526064015b60405180910390fd5b600b805460ff19811660ff90911615179055565b6000336109038185856134f7565b60019150505b92915050565b7f00000000000000000000000000000000000000000000000000000000000000006001600160a01b03166370905dce6040518163ffffffff1660e01b8152600401602060405180830381865afa15801561096d573d6000803e3d6000fd5b505050506040513d601f19601f820116820180604052508101906109919190614724565b6001600160a01b0316336001600160a01b03161480610a4257507f00000000000000000000000000000000000000000000000000000000000000006001600160a01b031663f851a4406040518163ffffffff1660e01b8152600401602060405180830381865afa158015610a09573d6000803e3d6000fd5b505050506040513d601f19601f82011682018060405250810190610a2d9190614724565b6001600160a01b0316336001600160a01b0316145b610a735760405162461bcd60e51b81526020600482015260026024820152614f4160f01b60448201526064016108d8565b600580546001600160801b03908116600160801b918416918202179091556040519081527fcaaa7d3acc870fbbecd0fd5b1b5318711a76bc6beee2883e7c8d6bbf3c77b3ad906020015b60405180910390a150565b600033610ad685828561361b565b610ae18585856136ad565b506001949350505050565b600080610af7613880565b600b5460ff1615610b2e5760405162461bcd60e51b81526020600482015260016024820152604360f81b60448201526064016108d8565b7f00000000000000000000000000000000000000000000000000000000000000006001600160a01b031663fea77eae6040518163ffffffff1660e01b8152600401602060405180830381865afa158015610b8c573d6000803e3d6000fd5b505050506040513d601f19601f82011682018060405250810190610bb09190614724565b6001600160a01b0316336001600160a01b031614610bf55760405162461bcd60e51b81526020600482015260026024820152614f4160f01b60448201526064016108d8565b6001600160a01b03861615801590610c3f57507f00000000000000000000000000000000000000000000000000000000000000006001600160a01b0316866001600160a01b031614155b8015610c7d57507f00000000000000000000000000000000000000000000000000000000000000006001600160a01b0316866001600160a01b031614155b610cae5760405162461bcd60e51b8152602060048201526002602482015261125560f21b60448201526064016108d8565b60007f00000000000000000000000000000000000000000000000000000000000000006001600160a01b03166337e0376b6040518163ffffffff1660e01b8152600401602060405180830381865afa158015610d0e573d6000803e3d6000fd5b505050506040513d601f19601f82011682018060405250810190610d329190614724565b60405163a8c6edc960e01b81526001600160a01b038a81166004830152306024830152919091169063a8c6edc99060440161010060405180830381865afa158015610d81573d6000803e3d6000fd5b505050506040513d601f19601f82011682018060405250810190610da59190614741565b60408082015160a083015191516334a2a5c360e11b81526001600160a01b0391821660048201529181166024830152919250818a16917f000000000000000000000000000000000000000000000000000000000000000016906369454b8690604401602060405180830381865afa158015610e24573d6000803e3d6000fd5b505050506040513d601f19601f82011682018060405250810190610e489190614724565b6001600160a01b031614610e875760405162461bcd60e51b81526004016108d890602080825260049082015263049494b560e41b604082015260600190565b80608001518911158015610eb557506040808201516001600160a01b03166000908152600d60205220548911155b610ee75760405162461bcd60e51b8152602060048201526003602482015262414f4560e81b60448201526064016108d8565b6040808201516001600160a01b03166000908152600a602052205460ff16610f375760405162461bcd60e51b8152602060048201526003602482015262544e5760e81b60448201526064016108d8565b7f00000000000000000000000000000000000000000000000000000000000000006001600160a01b031681602001516001600160a01b03161480610fb057507f00000000000000000000000000000000000000000000000000000000000000006001600160a01b031681602001516001600160a01b0316145b610fe25760405162461bcd60e51b815260206004820152600360248201526213939560ea1b60448201526064016108d8565b610ff18160400151888b6138d9565b60006110068a83608001518460600151613930565b90508415611072576020820151604080840151905163cc1fd73160e01b8152339263cc1fd7319261103f9286908c908c906004016147e1565b600060405180830381600087803b15801561105957600080fd5b505af115801561106d573d6000803e3d6000fd5b505050505b60007f00000000000000000000000000000000000000000000000000000000000000006001600160a01b031683602001516001600160a01b0316146110c957600454600160701b90046001600160701b03166110d6565b6004546001600160701b03165b6001600160701b03166110ec84602001516139fa565b6110f6919061484b565b90508181101561112e5760405162461bcd60e51b815260206004820152600360248201526212509160ea1b60448201526064016108d8565b61115661113b838361484b565b60646111478b8561485e565b611151919061488b565b613ae7565b6020840151955093508315611170576111708533866138d9565b7f00000000000000000000000000000000000000000000000000000000000000006001600160a01b03166337e0376b6040518163ffffffff1660e01b8152600401602060405180830381865afa1580156111ce573d6000803e3d6000fd5b505050506040513d601f19601f820116820180604052508101906111f29190614724565b6001600160a01b031663de9ea2398b308785886060015161121391906148ad565b61121d919061484b565b8f886080015161122d919061484b565b6040516001600160e01b031960e087901b1681526001600160a01b03948516600482015293909216602484015260448301526064820152608401600060405180830381600087803b15801561128157600080fd5b505af1158015611295573d6000803e3d6000fd5b505050505060006112a983604001516139fa565b905060008082116112bb5760006112ce565b6112ce8285608001518660600151613930565b905060008111801561131557507f00000000000000000000000000000000000000000000000000000000000000006001600160a01b031684602001516001600160a01b0316145b1561133e5760045461133b9082906001600160701b03600160701b820481169116613930565b90505b600680548201808255604080870180516001600160a01b039081166000908152600c60209081528482205490950390955581518116855282852095909555519093168252600d905220556113e26113b47f00000000000000000000000000000000000000000000000000000000000000006139fa565b6113dd7f00000000000000000000000000000000000000000000000000000000000000006139fa565b613aff565b6040808301516001600160a01b0381166000908152600d60205291909120547f3f78f965596026d67092e66b7de2aaf2c33839a6b15485c4dec57f03e35e8a3e919061142c611c94565b604080516001600160a01b03909416845260208401929092529082015260600160405180910390a160208083015160408085015181516001600160a01b039384168152908316938101939093528201839052606082018c90528a8116608083015289169033907f84e4b114d7cc75c5991508169b879228cf0ae428ba30144d51b8fc6a674aa9a89060a00160405180910390a350506114cb6001600355565b965096945050505050565b60006114e0613880565b600b5460ff16156115175760405162461bcd60e51b81526020600482015260016024820152604360f81b60448201526064016108d8565b6000861161154d5760405162461bcd60e51b815260206004820152600360248201526249414f60e81b60448201526064016108d8565b6001600160a01b0384161580159061159757507f00000000000000000000000000000000000000000000000000000000000000006001600160a01b0316846001600160a01b031614155b80156115d557507f00000000000000000000000000000000000000000000000000000000000000006001600160a01b0316846001600160a01b031614155b6116065760405162461bcd60e51b8152602060048201526002602482015261125560f21b60448201526064016108d8565b60007f00000000000000000000000000000000000000000000000000000000000000006001600160a01b03166337e0376b6040518163ffffffff1660e01b8152600401602060405180830381865afa158015611666573d6000803e3d6000fd5b505050506040513d601f19601f8201168201806040525081019061168a9190614724565b60405163a8c6edc960e01b81523060048201526001600160a01b038881166024830152919091169063a8c6edc99060440161010060405180830381865afa1580156116d9573d6000803e3d6000fd5b505050506040513d601f19601f820116820180604052508101906116fd9190614741565b602081015160a08201516040516334a2a5c360e11b81526001600160a01b0392831660048201529082166024820152919250808816917f0000000000000000000000000000000000000000000000000000000000000000909116906369454b8690604401602060405180830381865afa15801561177e573d6000803e3d6000fd5b505050506040513d601f19601f820116820180604052508101906117a29190614724565b6001600160a01b0316146117e15760405162461bcd60e51b81526004016108d890602080825260049082015263049494b560e41b604082015260600190565b8060800151871061181a5760405162461bcd60e51b8152602060048201526003602482015262414f4560e81b60448201526064016108d8565b60608101516080820151600454600092611840928b92600160f01b900461ffff16613b99565b90506118518260400151878a6138d9565b83156118bb576020820151604080840151905163cc1fd73160e01b8152339263cc1fd731926118889286908b908b906004016147e1565b600060405180830381600087803b1580156118a257600080fd5b505af11580156118b6573d6000803e3d6000fd5b505050505b60006118ca83602001516139fa565b6020808501516001600160a01b03166000908152600d90915260409020549091506118f5908261484b565b93508184101561192d5760405162461bcd60e51b815260206004820152600360248201526249494160e81b60448201526064016108d8565b60006119428285606001518660800151613930565b90507f00000000000000000000000000000000000000000000000000000000000000006001600160a01b031684604001516001600160a01b0316036119a5576004546119a29082906001600160701b03600160701b820481169116613930565b90505b600680548201808255602080870180516001600160a01b039081166000908152600c845260408082205490950390955581518116855283852095909555519093168252600d90925220819055611a1d6113b47f00000000000000000000000000000000000000000000000000000000000000006139fa565b6000611a27611c94565b9050600754811115611a645760405162461bcd60e51b81526004016108d8906020808252600490820152631510941560e21b604082015260600190565b7f00000000000000000000000000000000000000000000000000000000000000006001600160a01b03166337e0376b6040518163ffffffff1660e01b8152600401602060405180830381865afa158015611ac2573d6000803e3d6000fd5b505050506040513d601f19601f82011682018060405250810190611ae69190614724565b6001600160a01b031663de9ea239308b888860600151611b0691906148ad565b8e8960800151611b16919061484b565b6040516001600160e01b031960e087901b1681526001600160a01b03948516600482015293909216602484015260448301526064820152608401600060405180830381600087803b158015611b6a57600080fd5b505af1158015611b7e573d6000803e3d6000fd5b505050602080860151604080516001600160a01b0390921682529181018590529081018390527f3f78f965596026d67092e66b7de2aaf2c33839a6b15485c4dec57f03e35e8a3e915060600160405180910390a160208085015160408087015181516001600160a01b039384168152908316938101939093528201859052606082018c90528a8116608083015289169033907f84e4b114d7cc75c5991508169b879228cf0ae428ba30144d51b8fc6a674aa9a89060a0015b60405180910390a350505050611c4c6001600355565b95945050505050565b3360008181526001602090815260408083206001600160a01b03871684529091528120549091906109039082908690611c8f9087906148ad565b6134f7565b6004546000906001600160701b031680611caf576000611cdd565b600181901b611cc16103e860646148c0565b62ffffff16600654611cd3919061485e565b611cdd919061488b565b91505090565b60098181548110611cf357600080fd5b6000918252602090912001546001600160a01b0316905081565b7f00000000000000000000000000000000000000000000000000000000000000006001600160a01b03166370905dce6040518163ffffffff1660e01b8152600401602060405180830381865afa158015611d6b573d6000803e3d6000fd5b505050506040513d601f19601f82011682018060405250810190611d8f9190614724565b6001600160a01b0316336001600160a01b031614611dd45760405162461bcd60e51b81526020600482015260026024820152614f4560f01b60448201526064016108d8565b600754811115611e0f5760405162461bcd60e51b81526004016108d890602080825260049082015263125495d560e21b604082015260600190565b60088190556040518181527f77f0773cce90b3c7a365117b2463a279ec138c4ab7a241d604f91ebabd8fc25690602001610abd565b336001600160a01b037f0000000000000000000000000000000000000000000000000000000000000000161480611f0d57507f00000000000000000000000000000000000000000000000000000000000000006001600160a01b031663f851a4406040518163ffffffff1660e01b8152600401602060405180830381865afa158015611ed4573d6000803e3d6000fd5b505050506040513d601f19601f82011682018060405250810190611ef89190614724565b6001600160a01b0316336001600160a01b0316145b80611faa57507f00000000000000000000000000000000000000000000000000000000000000006001600160a01b03166370905dce6040518163ffffffff1660e01b8152600401602060405180830381865afa158015611f71573d6000803e3d6000fd5b505050506040513d601f19601f82011682018060405250810190611f959190614724565b6001600160a01b0316336001600160a01b0316145b611fdb5760405162461bcd60e51b81526020600482015260026024820152614f4160f01b60448201526064016108d8565b60015b81518110156120a05781611ff360018361484b565b81518110612003576120036148e7565b60200260200101516001600160a01b0316828281518110612026576120266148e7565b60200260200101516001600160a01b0316116120905760405162461bcd60e51b8152602060048201526024808201527f616c6c6f77206c697374206d75737420626520756e6971756520616e6420736f6044820152631c9d195960e21b60648201526084016108d8565b612099816148fd565b9050611fde565b50600060098054806020026020016040519081016040528092919081815260200182805480156120f957602002820191906000526020600020905b81546001600160a01b031681526001909101906020018083116120db575b5050505050905060005b8151811015612166576000600a6000848481518110612124576121246148e7565b6020908102919091018101516001600160a01b03168252810191909152604001600020805460ff191691151591909117905561215f816148fd565b9050612103565b50815161217a90600990602085019061427a565b507f00000000000000000000000000000000000000000000000000000000000000007f00000000000000000000000000000000000000000000000000000000000000006000805b85518110156122e957836001600160a01b03168682815181106121e6576121e66148e7565b60200260200101516001600160a01b0316141580156122305750826001600160a01b031686828151811061221c5761221c6148e7565b60200260200101516001600160a01b031614155b156122d9576001600a600088848151811061224d5761224d6148e7565b60200260200101516001600160a01b03166001600160a01b0316815260200190815260200160002060006101000a81548160ff021916908315150217905550600c60008783815181106122a2576122a26148e7565b60200260200101516001600160a01b03166001600160a01b0316815260200190815260200160002054826122d691906148ad565b91505b6122e2816148fd565b90506121c1565b5060068190556040517fc2d08e7ae40f88bd169469bbcfa69c8213cb98772e0bab7de792256c59139eec9061231f908790614916565b60405180910390a15050505050565b6000612338613880565b600b5460ff161561236f5760405162461bcd60e51b81526020600482015260016024820152604360f81b60448201526064016108d8565b6004546001600160701b0380821691600160701b90041660006123b17f00000000000000000000000000000000000000000000000000000000000000006139fa565b905060006123de7f00000000000000000000000000000000000000000000000000000000000000006139fa565b905060006123ec858461484b565b905060006123fa858461484b565b9050600061240760025490565b905080600003612444576103e8612426612421848661485e565b613bee565b612430919061484b565b975061243f60006103e8613cd6565b61246a565b61246787612452838661485e565b61245c919061488b565b87611147848661485e565b97505b6000612474611c94565b9050806124846103e860646148c0565b62ffffff1661249391906148ad565b6124a06103e860646148c0565b6124af9062ffffff168b61485e565b6124b9919061488b565b9850600089116124f15760405162461bcd60e51b8152602060048201526003602482015262494c4d60e81b60448201526064016108d8565b6124fb8a8a613cd6565b6125058686613aff565b896001600160a01b03167f94c792774c59479f7bd68442f3af3691c02123a5aabee8b6f9116d8af8aa666985858c61253c60025490565b60408051948552602085019390935291830152606082015260800160405180910390a250505050505050506125716001600355565b919050565b600080612581613880565b7f00000000000000000000000000000000000000000000000000000000000000007f000000000000000000000000000000000000000000000000000000000000000060006125ce836139fa565b905060006125db836139fa565b905060006125e8306139fa565b905060006125f560025490565b905080612602838661485e565b61260c919061488b565b975080612619838561485e565b612623919061488b565b96506000881180156126355750600087115b6126675760405162461bcd60e51b815260206004820152600360248201526224a62160e91b60448201526064016108d8565b6126713083613d3f565b61267c868a8a6138d9565b612687858a896138d9565b6000612691611c94565b905080156127a75760005b6009548110156127a5576000600982815481106126bb576126bb6148e7565b60009182526020808320909101546001600160a01b0316808352600d9091526040909120549091508015612792576000856126f6888461485e565b612700919061488b565b905061270d838f836138d9565b6001600160a01b0383166000908152600c602052604090205486612731898361485e565b61273b919061488b565b612745908261484b565b6001600160a01b0385166000908152600c60205260409020819055600680549091018290039055612776828461484b565b6001600160a01b0385166000908152600d602052604090205550505b50508061279e906148fd565b905061269c565b505b6127b0876139fa565b94506127bb866139fa565b93506127c78585613aff565b6001600160a01b038a16337fa476cebfbe7485684f5578d84d8a64a8afe93a0a2a3047bd6f3e681e108b8f118b8b6127fe60025490565b6040805193845260208401929092529082015260600160405180910390a35050505050505061282d6001600355565b915091565b61283a613e71565b60008261ffff16118015612852575060008161ffff16115b801561286357506103e88261ffff16105b801561287457506103e88161ffff16105b6128a65760405162461bcd60e51b815260206004820152600360248201526249464360e81b60448201526064016108d8565b600480546001600160e01b0316600160e01b61ffff8581169182027dffffffffffffffffffffffffffffffffffffffffffffffffffffffffffff1692909217600160f01b928516928302179092556040805192835260208301919091527faa1ebd1f8841401ae5e1a0f2febc87d5f597ae458fca8277cd0e43b92633183c91015b60405180910390a15050565b3360008181526001602090815260408083206001600160a01b0387168452909152812054909190838110156129d05760405162461bcd60e51b815260206004820152602560248201527f45524332303a2064656372656173656420616c6c6f77616e63652062656c6f7760448201527f207a65726f00000000000000000000000000000000000000000000000000000060648201526084016108d8565b610ae182868684036134f7565b6129e5613e71565b60008111612a1b5760405162461bcd60e51b815260206004820152600360248201526212549560ea1b60448201526064016108d8565b60078190556040518181527f047f24f47d2c93ef7523cb3c84c3b367df61e4899214a2a48784cfa09da91fdf90602001610abd565b6000336109038185856136ad565b612a66613880565b7f00000000000000000000000000000000000000000000000000000000000000006001600160a01b031663f851a4406040518163ffffffff1660e01b8152600401602060405180830381865afa158015612ac4573d6000803e3d6000fd5b505050506040513d601f19601f82011682018060405250810190612ae89190614724565b6001600160a01b0316336001600160a01b0316148015612b115750600854612b0e611c94565b10155b80612bae57507f00000000000000000000000000000000000000000000000000000000000000006001600160a01b03166370905dce6040518163ffffffff1660e01b8152600401602060405180830381865afa158015612b75573d6000803e3d6000fd5b505050506040513d601f19601f82011682018060405250810190612b999190614724565b6001600160a01b0316336001600160a01b0316145b612bdf5760405162461bcd60e51b81526020600482015260026024820152614f4160f01b60448201526064016108d8565b6001600160a01b0382166000908152600a602052604090205460ff16612c2d5760405162461bcd60e51b8152602060048201526003602482015262544e5760e81b60448201526064016108d8565b600080826001600160a01b031663aa6ca8086040518163ffffffff1660e01b81526004016040805180830381865afa158015612c6d573d6000803e3d6000fd5b505050506040513d601f19601f82011682018060405250810190612c919190614963565b91509150600080846001600160a01b031662113e086040518163ffffffff1660e01b81526004016040805180830381865afa158015612cd4573d6000803e3d6000fd5b505050506040513d601f19601f82011682018060405250810190612cf891906149a9565b6001600160701b031691506001600160701b03169150856001600160a01b0316846001600160a01b031614612d2c57919291905b6001600160a01b038681166000908152600d6020526040902054907f000000000000000000000000000000000000000000000000000000000000000081169085161480612daa57507f00000000000000000000000000000000000000000000000000000000000000006001600160a01b0316846001600160a01b0316145b8015612e5457506040516334a2a5c360e11b81526001600160a01b0388811660048301528581166024830152808816917f0000000000000000000000000000000000000000000000000000000000000000909116906369454b8690604401602060405180830381865afa158015612e25573d6000803e3d6000fd5b505050506040513d601f19601f82011682018060405250810190612e499190614724565b6001600160a01b0316145b612e865760405162461bcd60e51b81526020600482015260036024820152620494e560ec1b60448201526064016108d8565b6001600160a01b0387166000908152600c60209081526040808320805460068054919091039055839055600d909152812055612ec38787836138d9565b856001600160a01b031663e9dcafaa612f438386868b6001600160a01b031663ddca3f436040518163ffffffff1660e01b8152600401602060405180830381865afa158015612f16573d6000803e3d6000fd5b505050506040513d601f19601f82011682018060405250810190612f3a91906149dc565b61ffff16613f6d565b604080516000815260208101918290526001600160e01b031960e085901b16909152612f77919088903090602481016149f9565b6020604051808303816000875af1158015612f96573d6000803e3d6000fd5b505050506040513d601f19601f82011682018060405250810190612fba9190614a35565b50612fe76113b47f00000000000000000000000000000000000000000000000000000000000000006139fa565b7f3f78f965596026d67092e66b7de2aaf2c33839a6b15485c4dec57f03e35e8a3e876000613013611c94565b604080516001600160a01b03909416845260208401929092529082015260600160405180910390a1505050505061304a6001600355565b5050565b600061305d6103e860646148c0565b62ffffff16905090565b6000613071613880565b600b5460ff16156130a85760405162461bcd60e51b81526020600482015260016024820152604360f81b60448201526064016108d8565b6001600160a01b038416158015906130f257507f00000000000000000000000000000000000000000000000000000000000000006001600160a01b0316846001600160a01b031614155b801561313057507f00000000000000000000000000000000000000000000000000000000000000006001600160a01b0316846001600160a01b031614155b6131615760405162461bcd60e51b8152602060048201526002602482015261125560f21b60448201526064016108d8565b7f00000000000000000000000000000000000000000000000000000000000000006001600160a01b0316856001600160a01b031614806131d257507f00000000000000000000000000000000000000000000000000000000000000006001600160a01b0316856001600160a01b0316145b6132045760405162461bcd60e51b815260206004820152600360248201526213939560ea1b60448201526064016108d8565b6000861161323a5760405162461bcd60e51b815260206004820152600360248201526249414f60e81b60448201526064016108d8565b60007f00000000000000000000000000000000000000000000000000000000000000006001600160a01b0316866001600160a01b03161461329b577f00000000000000000000000000000000000000000000000000000000000000006132bd565b7f00000000000000000000000000000000000000000000000000000000000000005b60045490915060009081906133099084907f0000000000000000000000000000000000000000000000000000000000000000906001600160701b0380821691600160701b900416613fbb565b915091508089106133425760405162461bcd60e51b8152602060048201526003602482015262414f4560e81b60448201526064016108d8565b61334d88888b6138d9565b600061336f8a84846004601c9054906101000a900461ffff1661ffff16613b99565b905085156133d55760405163cc1fd73160e01b8152339063cc1fd731906133a29087908d9086908d908d906004016147e1565b600060405180830381600087803b1580156133bc57600080fd5b505af11580156133d0573d6000803e3d6000fd5b505050505b826133df856139fa565b6133e9919061484b565b94506000851180156133fb5750808510155b61342d5760405162461bcd60e51b815260206004820152600360248201526249494160e81b60448201526064016108d8565b60007f00000000000000000000000000000000000000000000000000000000000000006001600160a01b0316856001600160a01b03161490506134a08161347d576134788c8561484b565b613487565b61348787866148ad565b82613496576113dd88876148ad565b6113dd8d8661484b565b50604080516001600160a01b0386811682528b81166020830152918101839052606081018c90529089169033907f54787c404bb33c88e86f4baf88183a3b0141d0a848e6a9f7a13b66ae3a9b73d190608001611c36565b6001600160a01b0383166135595760405162461bcd60e51b8152602060048201526024808201527f45524332303a20617070726f76652066726f6d20746865207a65726f206164646044820152637265737360e01b60648201526084016108d8565b6001600160a01b0382166135ba5760405162461bcd60e51b815260206004820152602260248201527f45524332303a20617070726f766520746f20746865207a65726f206164647265604482015261737360f01b60648201526084016108d8565b6001600160a01b0383811660008181526001602090815260408083209487168084529482529182902085905590518481527f8c5be1e5ebec7d5bd14f71427d1e84f3dd0314c0f7b2291e5b200ac8c7c3b925910160405180910390a3505050565b6001600160a01b0383811660009081526001602090815260408083209386168352929052205460001981146136a7578181101561369a5760405162461bcd60e51b815260206004820152601d60248201527f45524332303a20696e73756666696369656e7420616c6c6f77616e636500000060448201526064016108d8565b6136a784848484036134f7565b50505050565b6001600160a01b0383166137295760405162461bcd60e51b815260206004820152602560248201527f45524332303a207472616e736665722066726f6d20746865207a65726f20616460448201527f647265737300000000000000000000000000000000000000000000000000000060648201526084016108d8565b6001600160a01b03821661378b5760405162461bcd60e51b815260206004820152602360248201527f45524332303a207472616e7366657220746f20746865207a65726f206164647260448201526265737360e81b60648201526084016108d8565b6001600160a01b0383166000908152602081905260409020548181101561381a5760405162461bcd60e51b815260206004820152602660248201527f45524332303a207472616e7366657220616d6f756e742065786365656473206260448201527f616c616e6365000000000000000000000000000000000000000000000000000060648201526084016108d8565b6001600160a01b03848116600081815260208181526040808320878703905593871680835291849020805487019055925185815290927fddf252ad1be2c89b69c2b068fc378daa952ba7f163c4a11628f55a4df523b3ef910160405180910390a36136a7565b6002600354036138d25760405162461bcd60e51b815260206004820152601f60248201527f5265656e7472616e637947756172643a207265656e7472616e742063616c6c0060448201526064016108d8565b6002600355565b604080516001600160a01b038416602482015260448082018490528251808303909101815260649091019091526020810180516001600160e01b031663a9059cbb60e01b17905261392b908490613fee565b505050565b60008084116139815760405162461bcd60e51b815260206004820152601a60248201527f56535741503a20494e53554646494349454e545f414d4f554e5400000000000060448201526064016108d8565b6000831180156139915750600082115b6139dd5760405162461bcd60e51b815260206004820152601d60248201527f56535741503a20494e53554646494349454e545f4c495155494449545900000060448201526064016108d8565b826139e8838661485e565b6139f2919061488b565b949350505050565b604051306024820152600090819081906001600160a01b0385169060440160408051601f198184030181529181526020820180516001600160e01b03166370a0823160e01b17905251613a4d9190614a4e565b600060405180830381855afa9150503d8060008114613a88576040519150601f19603f3d011682016040523d82523d6000602084013e613a8d565b606091505b5091509150818015613aa157506020815110155b613ad35760405162461bcd60e51b815260206004820152600360248201526223212360e91b60448201526064016108d8565b808060200190518101906139f29190614a35565b6000818310613af65781613af8565b825b9392505050565b600580546fffffffffffffffffffffffffffffffff1916436001600160801b0316179055600480546001600160e01b031916600160701b6001600160701b038481169182026dffffffffffffffffffffffffffff1916929092179185169182179092556040805191825260208201929092527fa74621c1abba1dca03b6708d02443d60ddfd3f4273745060c4355afc9daa52c69101612927565b6000806103e8613ba9878761485e565b613bb3919061485e565b9050600083613bc2888761484b565b613bcc919061485e565b9050613bd8818361488b565b613be39060016148ad565b979650505050505050565b600081600003613c0057506000919050565b60006001613c0d846140d3565b901c6001901b90506001818481613c2657613c26614875565b048201901c90506001818481613c3e57613c3e614875565b048201901c90506001818481613c5657613c56614875565b048201901c90506001818481613c6e57613c6e614875565b048201901c90506001818481613c8657613c86614875565b048201901c90506001818481613c9e57613c9e614875565b048201901c90506001818481613cb657613cb6614875565b048201901c9050613af881828581613cd057613cd0614875565b04613ae7565b8060026000828254613ce891906148ad565b90915550506001600160a01b038216600081815260208181526040808320805486019055518481527fddf252ad1be2c89b69c2b068fc378daa952ba7f163c4a11628f55a4df523b3ef910160405180910390a35050565b6001600160a01b038216613d9f5760405162461bcd60e51b815260206004820152602160248201527f45524332303a206275726e2066726f6d20746865207a65726f206164647265736044820152607360f81b60648201526084016108d8565b6001600160a01b03821660009081526020819052604090205481811015613e135760405162461bcd60e51b815260206004820152602260248201527f45524332303a206275726e20616d6f756e7420657863656564732062616c616e604482015261636560f01b60648201526084016108d8565b6001600160a01b0383166000818152602081815260408083208686039055600280548790039055518581529192917fddf252ad1be2c89b69c2b068fc378daa952ba7f163c4a11628f55a4df523b3ef910160405180910390a3505050565b7f00000000000000000000000000000000000000000000000000000000000000006001600160a01b031663f851a4406040518163ffffffff1660e01b8152600401602060405180830381865afa158015613ecf573d6000803e3d6000fd5b505050506040513d601f19601f82011682018060405250810190613ef39190614724565b6001600160a01b0316336001600160a01b03161480613f3a5750336001600160a01b037f000000000000000000000000000000000000000000000000000000000000000016145b613f6b5760405162461bcd60e51b81526020600482015260026024820152614f4160f01b60448201526064016108d8565b565b600080613f7a838761485e565b90506000613f88858361485e565b9050600082613f996103e88961485e565b613fa391906148ad565b9050613faf818361488b565b98975050505050505050565b600080856001600160a01b0316856001600160a01b031614613fde578284613fe1565b83835b9097909650945050505050565b6000614043826040518060400160405280602081526020017f5361666545524332303a206c6f772d6c6576656c2063616c6c206661696c6564815250856001600160a01b03166141679092919063ffffffff16565b80519091501561392b57808060200190518101906140619190614a6a565b61392b5760405162461bcd60e51b815260206004820152602a60248201527f5361666545524332303a204552433230206f7065726174696f6e20646964206e60448201527f6f7420737563636565640000000000000000000000000000000000000000000060648201526084016108d8565b600080608083901c156140e857608092831c92015b604083901c156140fa57604092831c92015b602083901c1561410c57602092831c92015b601083901c1561411e57601092831c92015b600883901c1561413057600892831c92015b600483901c1561414257600492831c92015b600283901c1561415457600292831c92015b600183901c156109095760010192915050565b60606139f2848460008585600080866001600160a01b0316858760405161418e9190614a4e565b60006040518083038185875af1925050503d80600081146141cb576040519150601f19603f3d011682016040523d82523d6000602084013e6141d0565b606091505b5091509150613be3878383876060831561424b578251600003614244576001600160a01b0385163b6142445760405162461bcd60e51b815260206004820152601d60248201527f416464726573733a2063616c6c20746f206e6f6e2d636f6e747261637400000060448201526064016108d8565b50816139f2565b6139f283838151156142605781518083602001fd5b8060405162461bcd60e51b81526004016108d8919061435c565b8280548282559060005260206000209081019282156142e7579160200282015b828111156142e757825182547fffffffffffffffffffffffff0000000000000000000000000000000000000000166001600160a01b0390911617825560209092019160019091019061429a565b506142f39291506142f7565b5090565b5b808211156142f357600081556001016142f8565b60005b8381101561432757818101518382015260200161430f565b50506000910152565b6000815180845261434881602086016020860161430c565b601f01601f19169290920160200192915050565b602081526000613af86020830184614330565b6001600160a01b038116811461438457600080fd5b50565b6000806040838503121561439a57600080fd5b82356143a58161436f565b946020939093013593505050565b6000602082840312156143c557600080fd5b81356001600160801b0381168114613af857600080fd5b6000806000606084860312156143f157600080fd5b83356143fc8161436f565b9250602084013561440c8161436f565b929592945050506040919091013590565b60008083601f84011261442f57600080fd5b50813567ffffffffffffffff81111561444757600080fd5b60208301915083602082850101111561445f57600080fd5b9250929050565b60008060008060008060a0878903121561447f57600080fd5b8635955060208701356144918161436f565b945060408701356144a18161436f565b935060608701359250608087013567ffffffffffffffff8111156144c457600080fd5b6144d089828a0161441d565b979a9699509497509295939492505050565b6000806000806000608086880312156144fa57600080fd5b85359450602086013561450c8161436f565b9350604086013561451c8161436f565b9250606086013567ffffffffffffffff81111561453857600080fd5b6145448882890161441d565b969995985093965092949392505050565b60006020828403121561456757600080fd5b5035919050565b634e487b7160e01b600052604160045260246000fd5b604051610100810167ffffffffffffffff811182821017156145a8576145a861456e565b60405290565b604051601f8201601f1916810167ffffffffffffffff811182821017156145d7576145d761456e565b604052919050565b600060208083850312156145f257600080fd5b823567ffffffffffffffff8082111561460a57600080fd5b818501915085601f83011261461e57600080fd5b8135818111156146305761463061456e565b8060051b91506146418483016145ae565b818152918301840191848101908884111561465b57600080fd5b938501935b83851015613faf57843592506146758361436f565b8282529385019390850190614660565b60006020828403121561469757600080fd5b8135613af88161436f565b61ffff8116811461438457600080fd5b600080604083850312156146c557600080fd5b82356146d0816146a2565b915060208301356146e0816146a2565b809150509250929050565b600080604083850312156146fe57600080fd5b82356147098161436f565b915060208301356146e08161436f565b80516125718161436f565b60006020828403121561473657600080fd5b8151613af88161436f565b6000610100828403121561475457600080fd5b61475c614584565b825162ffffff8116811461476f57600080fd5b815261477d60208401614719565b602082015261478e60408401614719565b604082015260608301516060820152608083015160808201526147b360a08401614719565b60a08201526147c460c08401614719565b60c08201526147d560e08401614719565b60e08201529392505050565b60006001600160a01b03808816835280871660208401525084604083015260806060830152826080830152828460a0840137600060a0848401015260a0601f19601f85011683010190509695505050505050565b634e487b7160e01b600052601160045260246000fd5b8181038181111561090957610909614835565b808202811582820484141761090957610909614835565b634e487b7160e01b600052601260045260246000fd5b6000826148a857634e487b7160e01b600052601260045260246000fd5b500490565b8082018082111561090957610909614835565b62ffffff8181168382160280821691908281146148df576148df614835565b505092915050565b634e487b7160e01b600052603260045260246000fd5b60006001820161490f5761490f614835565b5060010190565b6020808252825182820181905260009190848201906040850190845b818110156149575783516001600160a01b031683529284019291840191600101614932565b50909695505050505050565b6000806040838503121561497657600080fd5b82516149818161436f565b60208401519092506146e08161436f565b80516001600160701b038116811461257157600080fd5b600080604083850312156149bc57600080fd5b6149c583614992565b91506149d360208401614992565b90509250929050565b6000602082840312156149ee57600080fd5b8151613af8816146a2565b84815260006001600160a01b03808616602084015280851660408401525060806060830152614a2b6080830184614330565b9695505050505050565b600060208284031215614a4757600080fd5b5051919050565b60008251614a6081846020870161430c565b9190910192915050565b600060208284031215614a7c57600080fd5b81518015158114613af857600080fdfea164736f6c6343000812000a",
  "linkReferences": {},
  "deployedLinkReferences": {}
}