{
  "_format": "hh-sol-artifact-1",
  "contractName": "vRouter",
  "sourceName": "contracts/vRouter.sol",
  "abi": [
    {
      "inputs": [
        {
          "internalType": "address",
          "name": "_factory",
          "type": "address"
        },
        {
          "internalType": "address",
          "name": "_WETH9",
          "type": "address"
        }
      ],
      "stateMutability": "nonpayable",
      "type": "constructor"
    },
    {
      "anonymous": false,
      "inputs": [
        {
          "indexed": false,
          "internalType": "address",
          "name": "newFactoryAddress",
          "type": "address"
        }
      ],
      "name": "RouterFactoryChanged",
      "type": "event"
    },
    {
      "inputs": [],
      "name": "WETH9",
      "outputs": [
        {
          "internalType": "address",
          "name": "",
          "type": "address"
        }
      ],
      "stateMutability": "view",
      "type": "function"
    },
    {
      "inputs": [
        {
          "internalType": "address",
          "name": "tokenA",
          "type": "address"
        },
        {
          "internalType": "address",
          "name": "tokenB",
          "type": "address"
        },
        {
          "internalType": "uint256",
          "name": "amountADesired",
          "type": "uint256"
        },
        {
          "internalType": "uint256",
          "name": "amountBDesired",
          "type": "uint256"
        },
        {
          "internalType": "uint256",
          "name": "amountAMin",
          "type": "uint256"
        },
        {
          "internalType": "uint256",
          "name": "amountBMin",
          "type": "uint256"
        },
        {
          "internalType": "address",
          "name": "to",
          "type": "address"
        },
        {
          "internalType": "uint256",
          "name": "deadline",
          "type": "uint256"
        }
      ],
      "name": "addLiquidity",
      "outputs": [
        {
          "internalType": "uint256",
          "name": "amountA",
          "type": "uint256"
        },
        {
          "internalType": "uint256",
          "name": "amountB",
          "type": "uint256"
        },
        {
          "internalType": "address",
          "name": "pairAddress",
          "type": "address"
        },
        {
          "internalType": "uint256",
          "name": "liquidity",
          "type": "uint256"
        }
      ],
      "stateMutability": "nonpayable",
      "type": "function"
    },
    {
      "inputs": [
        {
          "internalType": "address",
          "name": "_factory",
          "type": "address"
        }
      ],
      "name": "changeFactory",
      "outputs": [],
      "stateMutability": "nonpayable",
      "type": "function"
    },
    {
      "inputs": [],
      "name": "factory",
      "outputs": [
        {
          "internalType": "address",
          "name": "",
          "type": "address"
        }
      ],
      "stateMutability": "view",
      "type": "function"
    },
    {
      "inputs": [
        {
          "internalType": "address",
          "name": "tokenIn",
          "type": "address"
        },
        {
          "internalType": "address",
          "name": "tokenOut",
          "type": "address"
        },
        {
          "internalType": "uint256",
          "name": "amountOut",
          "type": "uint256"
        }
      ],
      "name": "getAmountIn",
      "outputs": [
        {
          "internalType": "uint256",
          "name": "amountIn",
          "type": "uint256"
        }
      ],
      "stateMutability": "view",
      "type": "function"
    },
    {
      "inputs": [
        {
          "internalType": "address",
          "name": "tokenIn",
          "type": "address"
        },
        {
          "internalType": "address",
          "name": "tokenOut",
          "type": "address"
        },
        {
          "internalType": "uint256",
          "name": "amountIn",
          "type": "uint256"
        }
      ],
      "name": "getAmountOut",
      "outputs": [
        {
          "internalType": "uint256",
          "name": "amountOut",
          "type": "uint256"
        }
      ],
      "stateMutability": "view",
      "type": "function"
    },
    {
      "inputs": [
        {
          "internalType": "address[]",
          "name": "path",
          "type": "address[]"
        },
        {
          "internalType": "uint256",
          "name": "amountOut",
          "type": "uint256"
        }
      ],
      "name": "getAmountsIn",
      "outputs": [
        {
          "internalType": "uint256[]",
          "name": "amountsIn",
          "type": "uint256[]"
        }
      ],
      "stateMutability": "view",
      "type": "function"
    },
    {
      "inputs": [
        {
          "internalType": "address[]",
          "name": "path",
          "type": "address[]"
        },
        {
          "internalType": "uint256",
          "name": "amountIn",
          "type": "uint256"
        }
      ],
      "name": "getAmountsOut",
      "outputs": [
        {
          "internalType": "uint256[]",
          "name": "amountsOut",
          "type": "uint256[]"
        }
      ],
      "stateMutability": "view",
      "type": "function"
    },
    {
      "inputs": [
        {
          "internalType": "address",
          "name": "jkPair",
          "type": "address"
        },
        {
          "internalType": "address",
          "name": "ikPair",
          "type": "address"
        }
      ],
      "name": "getMaxVirtualTradeAmountRtoN",
      "outputs": [
        {
          "internalType": "uint256",
          "name": "maxAmountIn",
          "type": "uint256"
        }
      ],
      "stateMutability": "view",
      "type": "function"
    },
    {
      "inputs": [
        {
          "internalType": "address",
          "name": "jkPair",
          "type": "address"
        },
        {
          "internalType": "address",
          "name": "ikPair",
          "type": "address"
        },
        {
          "internalType": "uint256",
          "name": "amountOut",
          "type": "uint256"
        }
      ],
      "name": "getVirtualAmountIn",
      "outputs": [
        {
          "internalType": "uint256",
          "name": "amountIn",
          "type": "uint256"
        }
      ],
      "stateMutability": "view",
      "type": "function"
    },
    {
      "inputs": [
        {
          "internalType": "address",
          "name": "jkPair",
          "type": "address"
        },
        {
          "internalType": "address",
          "name": "ikPair",
          "type": "address"
        },
        {
          "internalType": "uint256",
          "name": "amountIn",
          "type": "uint256"
        }
      ],
      "name": "getVirtualAmountOut",
      "outputs": [
        {
          "internalType": "uint256",
          "name": "amountOut",
          "type": "uint256"
        }
      ],
      "stateMutability": "view",
      "type": "function"
    },
    {
      "inputs": [
        {
          "internalType": "address",
          "name": "jkPair",
          "type": "address"
        },
        {
          "internalType": "address",
          "name": "ikPair",
          "type": "address"
        }
      ],
      "name": "getVirtualPool",
      "outputs": [
        {
          "components": [
            {
              "internalType": "uint24",
              "name": "fee",
              "type": "uint24"
            },
            {
              "internalType": "address",
              "name": "token0",
              "type": "address"
            },
            {
              "internalType": "address",
              "name": "token1",
              "type": "address"
            },
            {
              "internalType": "uint256",
              "name": "balance0",
              "type": "uint256"
            },
            {
              "internalType": "uint256",
              "name": "balance1",
              "type": "uint256"
            },
            {
              "internalType": "address",
              "name": "commonToken",
              "type": "address"
            },
            {
              "internalType": "address",
              "name": "jkPair",
              "type": "address"
            },
            {
              "internalType": "address",
              "name": "ikPair",
              "type": "address"
            }
          ],
          "internalType": "struct VirtualPoolModel",
          "name": "vPool",
          "type": "tuple"
        }
      ],
      "stateMutability": "view",
      "type": "function"
    },
    {
      "inputs": [
        {
          "internalType": "address",
          "name": "token0",
          "type": "address"
        },
        {
          "internalType": "address",
          "name": "token1",
          "type": "address"
        }
      ],
      "name": "getVirtualPools",
      "outputs": [
        {
          "components": [
            {
              "internalType": "uint24",
              "name": "fee",
              "type": "uint24"
            },
            {
              "internalType": "address",
              "name": "token0",
              "type": "address"
            },
            {
              "internalType": "address",
              "name": "token1",
              "type": "address"
            },
            {
              "internalType": "uint256",
              "name": "balance0",
              "type": "uint256"
            },
            {
              "internalType": "uint256",
              "name": "balance1",
              "type": "uint256"
            },
            {
              "internalType": "address",
              "name": "commonToken",
              "type": "address"
            },
            {
              "internalType": "address",
              "name": "jkPair",
              "type": "address"
            },
            {
              "internalType": "address",
              "name": "ikPair",
              "type": "address"
            }
          ],
          "internalType": "struct VirtualPoolModel[]",
          "name": "vPools",
          "type": "tuple[]"
        }
      ],
      "stateMutability": "view",
      "type": "function"
    },
    {
      "inputs": [
        {
          "internalType": "bytes[]",
          "name": "data",
          "type": "bytes[]"
        }
      ],
      "name": "multicall",
      "outputs": [
        {
          "internalType": "bytes[]",
          "name": "results",
          "type": "bytes[]"
        }
      ],
      "stateMutability": "nonpayable",
      "type": "function"
    },
    {
      "inputs": [
        {
          "internalType": "address",
          "name": "inputToken",
          "type": "address"
        },
        {
          "internalType": "address",
          "name": "outputToken",
          "type": "address"
        },
        {
          "internalType": "uint256",
          "name": "amountIn",
          "type": "uint256"
        }
      ],
      "name": "quote",
      "outputs": [
        {
          "internalType": "uint256",
          "name": "amountOut",
          "type": "uint256"
        }
      ],
      "stateMutability": "view",
      "type": "function"
    },
    {
      "inputs": [
        {
          "internalType": "address",
          "name": "tokenA",
          "type": "address"
        },
        {
          "internalType": "address",
          "name": "tokenB",
          "type": "address"
        },
        {
          "internalType": "uint256",
          "name": "liquidity",
          "type": "uint256"
        },
        {
          "internalType": "uint256",
          "name": "amountAMin",
          "type": "uint256"
        },
        {
          "internalType": "uint256",
          "name": "amountBMin",
          "type": "uint256"
        },
        {
          "internalType": "address",
          "name": "to",
          "type": "address"
        },
        {
          "internalType": "uint256",
          "name": "deadline",
          "type": "uint256"
        }
      ],
      "name": "removeLiquidity",
      "outputs": [
        {
          "internalType": "uint256",
          "name": "amountA",
          "type": "uint256"
        },
        {
          "internalType": "uint256",
          "name": "amountB",
          "type": "uint256"
        }
      ],
      "stateMutability": "nonpayable",
      "type": "function"
    },
    {
      "inputs": [
        {
          "internalType": "address[]",
          "name": "path",
          "type": "address[]"
        },
        {
          "internalType": "uint256",
          "name": "amountOut",
          "type": "uint256"
        },
        {
          "internalType": "uint256",
          "name": "maxAmountIn",
          "type": "uint256"
        },
        {
          "internalType": "address",
          "name": "to",
          "type": "address"
        },
        {
          "internalType": "uint256",
          "name": "deadline",
          "type": "uint256"
        }
      ],
      "name": "swapETHForExactTokens",
      "outputs": [],
      "stateMutability": "payable",
      "type": "function"
    },
    {
      "inputs": [
        {
          "internalType": "address[]",
          "name": "path",
          "type": "address[]"
        },
        {
          "internalType": "uint256",
          "name": "amountIn",
          "type": "uint256"
        },
        {
          "internalType": "uint256",
          "name": "minAmountOut",
          "type": "uint256"
        },
        {
          "internalType": "address",
          "name": "to",
          "type": "address"
        },
        {
          "internalType": "uint256",
          "name": "deadline",
          "type": "uint256"
        }
      ],
      "name": "swapExactETHForTokens",
      "outputs": [],
      "stateMutability": "payable",
      "type": "function"
    },
    {
      "inputs": [
        {
          "internalType": "address[]",
          "name": "path",
          "type": "address[]"
        },
        {
          "internalType": "uint256",
          "name": "amountIn",
          "type": "uint256"
        },
        {
          "internalType": "uint256",
          "name": "minAmountOut",
          "type": "uint256"
        },
        {
          "internalType": "address",
          "name": "to",
          "type": "address"
        },
        {
          "internalType": "uint256",
          "name": "deadline",
          "type": "uint256"
        }
      ],
      "name": "swapExactTokensForETH",
      "outputs": [],
      "stateMutability": "nonpayable",
      "type": "function"
    },
    {
      "inputs": [
        {
          "internalType": "address[]",
          "name": "path",
          "type": "address[]"
        },
        {
          "internalType": "uint256",
          "name": "amountIn",
          "type": "uint256"
        },
        {
          "internalType": "uint256",
          "name": "minAmountOut",
          "type": "uint256"
        },
        {
          "internalType": "address",
          "name": "to",
          "type": "address"
        },
        {
          "internalType": "uint256",
          "name": "deadline",
          "type": "uint256"
        }
      ],
      "name": "swapExactTokensForTokens",
      "outputs": [],
      "stateMutability": "nonpayable",
      "type": "function"
    },
    {
      "inputs": [
        {
          "internalType": "address",
          "name": "tokenOut",
          "type": "address"
        },
        {
          "internalType": "address",
          "name": "commonToken",
          "type": "address"
        },
        {
          "internalType": "address",
          "name": "ikPair",
          "type": "address"
        },
        {
          "internalType": "uint256",
          "name": "amountOut",
          "type": "uint256"
        },
        {
          "internalType": "uint256",
          "name": "maxAmountIn",
          "type": "uint256"
        },
        {
          "internalType": "address",
          "name": "to",
          "type": "address"
        },
        {
          "internalType": "uint256",
          "name": "deadline",
          "type": "uint256"
        }
      ],
      "name": "swapReserveETHForExactTokens",
      "outputs": [],
      "stateMutability": "payable",
      "type": "function"
    },
    {
      "inputs": [
        {
          "internalType": "address",
          "name": "tokenOut",
          "type": "address"
        },
        {
          "internalType": "address",
          "name": "commonToken",
          "type": "address"
        },
        {
          "internalType": "address",
          "name": "ikPair",
          "type": "address"
        },
        {
          "internalType": "uint256",
          "name": "amountIn",
          "type": "uint256"
        },
        {
          "internalType": "uint256",
          "name": "minAmountOut",
          "type": "uint256"
        },
        {
          "internalType": "address",
          "name": "to",
          "type": "address"
        },
        {
          "internalType": "uint256",
          "name": "deadline",
          "type": "uint256"
        }
      ],
      "name": "swapReserveExactETHForTokens",
      "outputs": [],
      "stateMutability": "payable",
      "type": "function"
    },
    {
      "inputs": [
        {
          "internalType": "address",
          "name": "tokenOut",
          "type": "address"
        },
        {
          "internalType": "address",
          "name": "commonToken",
          "type": "address"
        },
        {
          "internalType": "address",
          "name": "ikPair",
          "type": "address"
        },
        {
          "internalType": "uint256",
          "name": "amountIn",
          "type": "uint256"
        },
        {
          "internalType": "uint256",
          "name": "minAmountOut",
          "type": "uint256"
        },
        {
          "internalType": "address",
          "name": "to",
          "type": "address"
        },
        {
          "internalType": "uint256",
          "name": "deadline",
          "type": "uint256"
        }
      ],
      "name": "swapReserveExactTokensForETH",
      "outputs": [],
      "stateMutability": "nonpayable",
      "type": "function"
    },
    {
      "inputs": [
        {
          "internalType": "address",
          "name": "tokenOut",
          "type": "address"
        },
        {
          "internalType": "address",
          "name": "commonToken",
          "type": "address"
        },
        {
          "internalType": "address",
          "name": "ikPair",
          "type": "address"
        },
        {
          "internalType": "uint256",
          "name": "amountIn",
          "type": "uint256"
        },
        {
          "internalType": "uint256",
          "name": "minAmountOut",
          "type": "uint256"
        },
        {
          "internalType": "address",
          "name": "to",
          "type": "address"
        },
        {
          "internalType": "uint256",
          "name": "deadline",
          "type": "uint256"
        }
      ],
      "name": "swapReserveExactTokensForTokens",
      "outputs": [],
      "stateMutability": "nonpayable",
      "type": "function"
    },
    {
      "inputs": [
        {
          "internalType": "address",
          "name": "tokenOut",
          "type": "address"
        },
        {
          "internalType": "address",
          "name": "commonToken",
          "type": "address"
        },
        {
          "internalType": "address",
          "name": "ikPair",
          "type": "address"
        },
        {
          "internalType": "uint256",
          "name": "amountOut",
          "type": "uint256"
        },
        {
          "internalType": "uint256",
          "name": "maxAmountIn",
          "type": "uint256"
        },
        {
          "internalType": "address",
          "name": "to",
          "type": "address"
        },
        {
          "internalType": "uint256",
          "name": "deadline",
          "type": "uint256"
        }
      ],
      "name": "swapReserveTokensForExactETH",
      "outputs": [],
      "stateMutability": "nonpayable",
      "type": "function"
    },
    {
      "inputs": [
        {
          "internalType": "address",
          "name": "tokenOut",
          "type": "address"
        },
        {
          "internalType": "address",
          "name": "commonToken",
          "type": "address"
        },
        {
          "internalType": "address",
          "name": "ikPair",
          "type": "address"
        },
        {
          "internalType": "uint256",
          "name": "amountOut",
          "type": "uint256"
        },
        {
          "internalType": "uint256",
          "name": "maxAmountIn",
          "type": "uint256"
        },
        {
          "internalType": "address",
          "name": "to",
          "type": "address"
        },
        {
          "internalType": "uint256",
          "name": "deadline",
          "type": "uint256"
        }
      ],
      "name": "swapReserveTokensForExactTokens",
      "outputs": [],
      "stateMutability": "nonpayable",
      "type": "function"
    },
    {
      "inputs": [
        {
          "internalType": "address[]",
          "name": "path",
          "type": "address[]"
        },
        {
          "internalType": "uint256",
          "name": "amountOut",
          "type": "uint256"
        },
        {
          "internalType": "uint256",
          "name": "maxAmountIn",
          "type": "uint256"
        },
        {
          "internalType": "address",
          "name": "to",
          "type": "address"
        },
        {
          "internalType": "uint256",
          "name": "deadline",
          "type": "uint256"
        }
      ],
      "name": "swapTokensForExactETH",
      "outputs": [],
      "stateMutability": "nonpayable",
      "type": "function"
    },
    {
      "inputs": [
        {
          "internalType": "address[]",
          "name": "path",
          "type": "address[]"
        },
        {
          "internalType": "uint256",
          "name": "amountOut",
          "type": "uint256"
        },
        {
          "internalType": "uint256",
          "name": "maxAmountIn",
          "type": "uint256"
        },
        {
          "internalType": "address",
          "name": "to",
          "type": "address"
        },
        {
          "internalType": "uint256",
          "name": "deadline",
          "type": "uint256"
        }
      ],
      "name": "swapTokensForExactTokens",
      "outputs": [],
      "stateMutability": "nonpayable",
      "type": "function"
    },
    {
      "stateMutability": "payable",
      "type": "receive"
    }
  ],
  "bytecode": "0x60a06040523480156200001157600080fd5b5060405162004e9038038062004e9083398101604081905262000034916200007d565b6001600160a01b03908116608052600080546001600160a01b03191692909116919091179055620000b5565b80516001600160a01b03811681146200007857600080fd5b919050565b600080604083850312156200009157600080fd5b6200009c8362000060565b9150620000ac6020840162000060565b90509250929050565b608051614d6b62000125600039600081816101cb015281816103ba0152818161068e01528181610eca0152818161132e015281816117de0152818161192301528181611b0a01528181611db00152818161253a0152818161283601528181612a340152612aab0152614d6b6000f3fe6080604052600436106101bb5760003560e01c80635caf6ff0116100ec578063ac9650d81161008a578063bfe151a611610064578063bfe151a6146105a9578063c45a0155146105c9578063e8e33700146105e9578063f9db40a21461063857600080fd5b8063ac9650d814610527578063b646638414610554578063baa2abde1461057457600080fd5b80637d890be2116100c65780637d890be2146104a7578063870822df146104ba578063a0b08685146104da578063a8c6edc9146104fa57600080fd5b80635caf6ff014610454578063739bcdbb146104745780637950024d1461048757600080fd5b80633d38ef34116101595780634aa4a4fc116101335780634aa4a4fc146103a857806353b609b5146103f45780635602a85514610414578063580463621461043457600080fd5b80633d38ef3414610355578063420223cf146103755780634aa066521461038857600080fd5b8063122c8a4a11610195578063122c8a4a146102ba5780632617cd0e146102da5780632a8ed2bd1461030757806336b606fa1461033557600080fd5b80630f9940c21461024457806311897c9a1461026457806311c6e7411461029a57600080fd5b3661023f57336001600160a01b037f0000000000000000000000000000000000000000000000000000000000000000161461023d5760405162461bcd60e51b815260206004820152600960248201527f4e6f74205745544839000000000000000000000000000000000000000000000060448201526064015b60405180910390fd5b005b600080fd5b34801561025057600080fd5b5061023d61025f3660046143f8565b61064b565b34801561027057600080fd5b5061028461027f366004614463565b610875565b60405161029191906144a8565b60405180910390f35b3480156102a657600080fd5b5061023d6102b53660046144ec565b610988565b3480156102c657600080fd5b506102846102d5366004614463565b610b3b565b3480156102e657600080fd5b506102fa6102f5366004614509565b610c5f565b6040516102919190614542565b34801561031357600080fd5b506103276103223660046145e8565b610d4c565b604051908152602001610291565b34801561034157600080fd5b5061023d6103503660046143f8565b610d81565b34801561036157600080fd5b506103276103703660046145e8565b610e5b565b61023d6103833660046143f8565b610e87565b34801561039457600080fd5b506103276103a33660046145e8565b61102f565b3480156103b457600080fd5b506103dc7f000000000000000000000000000000000000000000000000000000000000000081565b6040516001600160a01b039091168152602001610291565b34801561040057600080fd5b5061032761040f3660046145e8565b6111a8565b34801561042057600080fd5b5061023d61042f366004614629565b6112eb565b34801561044057600080fd5b5061023d61044f3660046143f8565b6114ec565b34801561046057600080fd5b5061023d61046f366004614629565b6115b1565b61023d610482366004614629565b61170e565b34801561049357600080fd5b5061023d6104a2366004614629565b6118e0565b61023d6104b53660046143f8565b611ac7565b3480156104c657600080fd5b5061023d6104d5366004614629565b611c27565b3480156104e657600080fd5b5061023d6104f53660046143f8565b611d6d565b34801561050657600080fd5b5061051a610515366004614509565b611ee3565b60405161029191906146a4565b34801561053357600080fd5b50610547610542366004614716565b61200e565b60405161029191906147db565b34801561056057600080fd5b5061032761056f3660046145e8565b612102565b34801561058057600080fd5b5061059461058f36600461483d565b6121dc565b60408051928352602083019190915201610291565b3480156105b557600080fd5b506103276105c4366004614509565b612358565b3480156105d557600080fd5b506000546103dc906001600160a01b031681565b3480156105f557600080fd5b50610609610604366004614898565b612378565b604051610291949392919093845260208401929092526001600160a01b03166040830152606082015260800190565b61023d610646366004614629565b61246a565b804281101561068c5760405162461bcd60e51b815260206004820152600d60248201526c1594d5d0540e91561412549151609a1b6044820152606401610234565b7f00000000000000000000000000000000000000000000000000000000000000006001600160a01b031686600188516106c5919061492a565b815181106106d5576106d561493d565b60200260200101516001600160a01b03161461073d5760405162461bcd60e51b815260206004820152602160248201527f56535741503a204f555450555420544f4b454e204d55535420424520574554486044820152603960f81b6064820152608401610234565b60006107498787610b3b565b9050848160008151811061075f5761075f61493d565b602002602001015111156107b55760405162461bcd60e51b815260206004820152601e60248201527f56535741503a2052455155495245445f414d4f554e545f4558434545445300006044820152606401610234565b610831876000815181106107cb576107cb61493d565b6020026020010151826000815181106107e6576107e661493d565b602002602001015161082c8a6000815181106108045761080461493d565b60200260200101518b60018151811061081f5761081f61493d565b602002602001015161263b565b612653565b61083c878230612664565b61086c84826001845161084f919061492a565b8151811061085f5761085f61493d565b6020026020010151612820565b50505050505050565b6060825167ffffffffffffffff811115610891576108916142d7565b6040519080825280602002602001820160405280156108ba578160200160208202803683370190505b50905081816000815181106108d1576108d161493d565b602090810291909101015260015b815181101561098157610954846108f760018461492a565b815181106109075761090761493d565b60200260200101518583815181106109215761092161493d565b602002602001015184600185610937919061492a565b815181106109475761094761493d565b602002602001015161102f565b8282815181106109665761096661493d565b602090810291909101015261097a81614953565b90506108df565b5092915050565b60008054906101000a90046001600160a01b03166001600160a01b031663f851a4406040518163ffffffff1660e01b8152600401602060405180830381865afa1580156109d9573d6000803e3d6000fd5b505050506040513d601f19601f820116820180604052508101906109fd919061497c565b6001600160a01b0316336001600160a01b031614610a5d5760405162461bcd60e51b815260206004820152601060248201527f56535741503a4f4e4c595f41444d494e000000000000000000000000000000006044820152606401610234565b6001600160a01b03811615801590610a8357506000546001600160a01b03828116911614155b610acf5760405162461bcd60e51b815260206004820152601560248201527f56535741503a494e56414c49445f464143544f525900000000000000000000006044820152606401610234565b600080547fffffffffffffffffffffffff0000000000000000000000000000000000000000166001600160a01b0383169081179091556040519081527f6167d43c236d17aaa711f8498961fc09fb37c0f1de8cc3f39f1168ddf9a699319060200160405180910390a150565b6060825167ffffffffffffffff811115610b5757610b576142d7565b604051908082528060200260200182016040528015610b80578160200160208202803683370190505b509050818160018351610b93919061492a565b81518110610ba357610ba361493d565b602002602001018181525050600060018451610bbf919061492a565b90505b801561098157610c2884610bd760018461492a565b81518110610be757610be761493d565b6020026020010151858381518110610c0157610c0161493d565b6020026020010151848481518110610c1b57610c1b61493d565b60200260200101516111a8565b82610c3460018461492a565b81518110610c4457610c4461493d565b6020908102919091010152610c5881614999565b9050610bc2565b600054604080516337e0376b60e01b815290516060926001600160a01b0316916337e0376b9160048083019260209291908290030181865afa158015610ca9573d6000803e3d6000fd5b505050506040513d601f19601f82011682018060405250810190610ccd919061497c565b60405163130be68760e11b81526001600160a01b03858116600483015284811660248301529190911690632617cd0e90604401600060405180830381865afa158015610d1d573d6000803e3d6000fd5b505050506040513d6000823e601f3d908101601f19168201604052610d459190810190614a51565b9392505050565b600080610d598585611ee3565b9050610d788382606001518360800151846000015162ffffff1661293e565b95945050505050565b8042811015610dc25760405162461bcd60e51b815260206004820152600d60248201526c1594d5d0540e91561412549151609a1b6044820152606401610234565b6000610dce8787610b3b565b90508481600081518110610de457610de461493d565b60200260200101511115610e3a5760405162461bcd60e51b815260206004820152601e60248201527f56535741503a2052455155495245445f414d4f554e545f4558434545445300006044820152606401610234565b610e50876000815181106107cb576107cb61493d565b61086c878286612664565b600080610e688585611ee3565b9050610d788382606001518360800151846000015162ffffff1661298c565b8042811015610ec85760405162461bcd60e51b815260206004820152600d60248201526c1594d5d0540e91561412549151609a1b6044820152606401610234565b7f00000000000000000000000000000000000000000000000000000000000000006001600160a01b031686600081518110610f0557610f0561493d565b60200260200101516001600160a01b031614610f635760405162461bcd60e51b815260206004820181905260248201527f56535741503a20494e50555420544f4b454e204d5553542042452057455448396044820152606401610234565b6000610f6f8787610b3b565b90508481600081518110610f8557610f8561493d565b60200260200101511115610fdb5760405162461bcd60e51b815260206004820152601e60248201527f56535741503a2052455155495245445f414d4f554e545f4558434545445300006044820152606401610234565b610e5081600081518110610ff157610ff161493d565b602002602001015161102a8960008151811061100f5761100f61493d565b60200260200101518a60018151811061081f5761081f61493d565b6129d6565b60008061103c8585612ae6565b9050600080826001600160a01b031662113e086040518163ffffffff1660e01b81526004016040805180830381865afa15801561107d573d6000803e3d6000fd5b505050506040513d601f19601f820116820180604052508101906110a19190614afa565b6001600160701b031691506001600160701b0316915061112487846001600160a01b0316630dfe16816040518163ffffffff1660e01b8152600401602060405180830381865afa1580156110f9573d6000803e3d6000fd5b505050506040513d601f19601f8201168201806040525081019061111d919061497c565b8484612af2565b809250819350505061119d858383866001600160a01b031663ddca3f436040518163ffffffff1660e01b8152600401602060405180830381865afa158015611170573d6000803e3d6000fd5b505050506040513d601f19601f820116820180604052508101906111949190614b2d565b61ffff1661293e565b979650505050505050565b6000806111b58585612ae6565b9050600080826001600160a01b031662113e086040518163ffffffff1660e01b81526004016040805180830381865afa1580156111f6573d6000803e3d6000fd5b505050506040513d601f19601f8201168201806040525081019061121a9190614afa565b6001600160701b031691506001600160701b0316915061127287846001600160a01b0316630dfe16816040518163ffffffff1660e01b8152600401602060405180830381865afa1580156110f9573d6000803e3d6000fd5b809250819350505061119d858383866001600160a01b031663ddca3f436040518163ffffffff1660e01b8152600401602060405180830381865afa1580156112be573d6000803e3d6000fd5b505050506040513d601f19601f820116820180604052508101906112e29190614b2d565b61ffff1661298c565b804281101561132c5760405162461bcd60e51b815260206004820152600d60248201526c1594d5d0540e91561412549151609a1b6044820152606401610234565b7f00000000000000000000000000000000000000000000000000000000000000006001600160a01b0316886001600160a01b0316146113b75760405162461bcd60e51b815260206004820152602160248201527f56535741503a204f555450555420544f4b454e204d55535420424520574554486044820152603960f81b6064820152608401610234565b600080876001600160a01b031663aa6ca8086040518163ffffffff1660e01b81526004016040805180830381865afa1580156113f7573d6000803e3d6000fd5b505050506040513d601f19601f8201168201806040525081019061141b9190614b51565b915091506000896001600160a01b0316836001600160a01b0316146114405782611442565b815b905060006114508c8c61263b565b9050600061145f828c8c610d4c565b9050888110156114bc5760405162461bcd60e51b815260206004820152602260248201527f56535741503a20494e53554646494349454e545f564f55545055545f414d4f55604482015261139560f21b6064820152608401610234565b6114c7838b84612653565b6114d381838d30612b25565b6114dd8882612820565b50505050505050505050505050565b804281101561152d5760405162461bcd60e51b815260206004820152600d60248201526c1594d5d0540e91561412549151609a1b6044820152606401610234565b60006115398787610875565b905084816001835161154b919061492a565b8151811061155b5761155b61493d565b60200260200101511015610e3a5760405162461bcd60e51b815260206004820181905260248201527f56535741503a20494e53554646494349454e545f494e5055545f414d4f554e546044820152606401610234565b80428110156115f25760405162461bcd60e51b815260206004820152600d60248201526c1594d5d0540e91561412549151609a1b6044820152606401610234565b600080876001600160a01b031663aa6ca8086040518163ffffffff1660e01b81526004016040805180830381865afa158015611632573d6000803e3d6000fd5b505050506040513d601f19601f820116820180604052508101906116569190614b51565b915091506000896001600160a01b0316836001600160a01b03161461167b578261167d565b815b9050600061168b8c8c61263b565b9050600061169a828c8c610d4c565b9050888110156116f75760405162461bcd60e51b815260206004820152602260248201527f56535741503a20494e53554646494349454e545f564f55545055545f414d4f55604482015261139560f21b6064820152608401610234565b611702838b84612653565b6114dd81838d8b612b25565b804281101561174f5760405162461bcd60e51b815260206004820152600d60248201526c1594d5d0540e91561412549151609a1b6044820152606401610234565b600080876001600160a01b031663aa6ca8086040518163ffffffff1660e01b81526004016040805180830381865afa15801561178f573d6000803e3d6000fd5b505050506040513d601f19601f820116820180604052508101906117b39190614b51565b915091506000896001600160a01b0316836001600160a01b0316146117d857826117da565b815b90507f00000000000000000000000000000000000000000000000000000000000000006001600160a01b0316816001600160a01b03161461185d5760405162461bcd60e51b815260206004820181905260248201527f56535741503a20494e50555420544f4b454e204d5553542042452057455448396044820152606401610234565b60006118698c8c61263b565b90506000611878828c8c610e5b565b9050888111156118ca5760405162461bcd60e51b815260206004820152601d60248201527f56535741503a2052455155495245445f56494e5055545f4558434545440000006044820152606401610234565b6118d481836129d6565b6114dd8a838d8b612b25565b80428110156119215760405162461bcd60e51b815260206004820152600d60248201526c1594d5d0540e91561412549151609a1b6044820152606401610234565b7f00000000000000000000000000000000000000000000000000000000000000006001600160a01b0316886001600160a01b0316146119ac5760405162461bcd60e51b815260206004820152602160248201527f56535741503a204f555450555420544f4b454e204d55535420424520574554486044820152603960f81b6064820152608401610234565b600080876001600160a01b031663aa6ca8086040518163ffffffff1660e01b81526004016040805180830381865afa1580156119ec573d6000803e3d6000fd5b505050506040513d601f19601f82011682018060405250810190611a109190614b51565b915091506000896001600160a01b0316836001600160a01b031614611a355782611a37565b815b90506000611a458c8c61263b565b90506000611a54828c8c610e5b565b905088811115611aa65760405162461bcd60e51b815260206004820152601d60248201527f56535741503a2052455155495245445f56494e5055545f4558434545440000006044820152606401610234565b611ab1838284612653565b611abd8a838d30612b25565b6114dd888b612820565b8042811015611b085760405162461bcd60e51b815260206004820152600d60248201526c1594d5d0540e91561412549151609a1b6044820152606401610234565b7f00000000000000000000000000000000000000000000000000000000000000006001600160a01b031686600081518110611b4557611b4561493d565b60200260200101516001600160a01b031614611ba35760405162461bcd60e51b815260206004820181905260248201527f56535741503a20494e50555420544f4b454e204d5553542042452057455448396044820152606401610234565b6000611baf8787610875565b9050848160018351611bc1919061492a565b81518110611bd157611bd161493d565b60200260200101511015610fdb5760405162461bcd60e51b815260206004820181905260248201527f56535741503a20494e53554646494349454e545f494e5055545f414d4f554e546044820152606401610234565b8042811015611c685760405162461bcd60e51b815260206004820152600d60248201526c1594d5d0540e91561412549151609a1b6044820152606401610234565b600080876001600160a01b031663aa6ca8086040518163ffffffff1660e01b81526004016040805180830381865afa158015611ca8573d6000803e3d6000fd5b505050506040513d601f19601f82011682018060405250810190611ccc9190614b51565b915091506000896001600160a01b0316836001600160a01b031614611cf15782611cf3565b815b90506000611d018c8c61263b565b90506000611d10828c8c610e5b565b905088811115611d625760405162461bcd60e51b815260206004820152601d60248201527f56535741503a2052455155495245445f56494e5055545f4558434545440000006044820152606401610234565b6118d4838284612653565b8042811015611dae5760405162461bcd60e51b815260206004820152600d60248201526c1594d5d0540e91561412549151609a1b6044820152606401610234565b7f00000000000000000000000000000000000000000000000000000000000000006001600160a01b03168660018851611de7919061492a565b81518110611df757611df761493d565b60200260200101516001600160a01b031614611e5f5760405162461bcd60e51b815260206004820152602160248201527f56535741503a204f555450555420544f4b454e204d55535420424520574554486044820152603960f81b6064820152608401610234565b6000611e6b8787610875565b9050848160018351611e7d919061492a565b81518110611e8d57611e8d61493d565b602002602001015110156107b55760405162461bcd60e51b815260206004820181905260248201527f56535741503a20494e53554646494349454e545f494e5055545f414d4f554e546044820152606401610234565b6040805161010081018252600080825260208201819052918101829052606081018290526080810182905260a0810182905260c0810182905260e081019190915260008054906101000a90046001600160a01b03166001600160a01b03166337e0376b6040518163ffffffff1660e01b8152600401602060405180830381865afa158015611f75573d6000803e3d6000fd5b505050506040513d601f19601f82011682018060405250810190611f99919061497c565b60405163a8c6edc960e01b81526001600160a01b0385811660048301528481166024830152919091169063a8c6edc99060440161010060405180830381865afa158015611fea573d6000803e3d6000fd5b505050506040513d601f19601f82011682018060405250810190610d459190614b80565b60608167ffffffffffffffff811115612029576120296142d7565b60405190808252806020026020018201604052801561205c57816020015b60608152602001906001900390816120475790505b50905060005b82811015610981576120cc308585848181106120805761208061493d565b90506020028101906120929190614b9d565b8080601f016020809104026020016040519081016040528093929190818152602001838380828437600092019190915250612bae92505050565b8282815181106120de576120de61493d565b602002602001018190525080806120f490614953565b915050612062565b92915050565b60008061210f8585612ae6565b9050600080826001600160a01b031662113e086040518163ffffffff1660e01b81526004016040805180830381865afa158015612150573d6000803e3d6000fd5b505050506040513d601f19601f820116820180604052508101906121749190614afa565b6001600160701b031691506001600160701b031691506121cc87846001600160a01b0316630dfe16816040518163ffffffff1660e01b8152600401602060405180830381865afa1580156110f9573d6000803e3d6000fd5b909250905061119d858383612bd3565b60008082428110156122205760405162461bcd60e51b815260206004820152600d60248201526c1594d5d0540e91561412549151609a1b6044820152606401610234565b600061222c8b8b61263b565b905061223a8133838c612c95565b60405163226bf2d160e21b81526001600160a01b0387811660048301528216906389afcb449060240160408051808303816000875af1158015612281573d6000803e3d6000fd5b505050506040513d601f19601f820116820180604052508101906122a59190614be4565b9094509250878410156122fa5760405162461bcd60e51b815260206004820152601c60248201527f56535741503a20494e53554646494349454e545f415f414d4f554e54000000006044820152606401610234565b8683101561234a5760405162461bcd60e51b815260206004820152601c60248201527f56535741503a20494e53554646494349454e545f425f414d4f554e54000000006044820152606401610234565b505097509795505050505050565b6000806123658484611ee3565b905061237081612d2d565b949350505050565b60008060008084428110156123bf5760405162461bcd60e51b815260206004820152600d60248201526c1594d5d0540e91561412549151609a1b6044820152606401610234565b6123cd8d8d8d8d8d8d613a42565b919650945092506123e08d338588612c95565b6123ec8c338587612c95565b6040516335313c2160e11b81526001600160a01b038881166004830152841690636a627842906024016020604051808303816000875af1158015612434573d6000803e3d6000fd5b505050506040513d601f19601f820116820180604052508101906124589190614c08565b91505098509850985098945050505050565b80428110156124ab5760405162461bcd60e51b815260206004820152600d60248201526c1594d5d0540e91561412549151609a1b6044820152606401610234565b600080876001600160a01b031663aa6ca8086040518163ffffffff1660e01b81526004016040805180830381865afa1580156124eb573d6000803e3d6000fd5b505050506040513d601f19601f8201168201806040525081019061250f9190614b51565b915091506000896001600160a01b0316836001600160a01b0316146125345782612536565b815b90507f00000000000000000000000000000000000000000000000000000000000000006001600160a01b0316816001600160a01b0316146125b95760405162461bcd60e51b815260206004820181905260248201527f56535741503a20494e50555420544f4b454e204d5553542042452057455448396044820152606401610234565b60006125c58c8c61263b565b905060006125d4828c8c610d4c565b9050888110156126315760405162461bcd60e51b815260206004820152602260248201527f56535741503a20494e53554646494349454e545f564f55545055545f414d4f55604482015261139560f21b6064820152608401610234565b6117028a836129d6565b60008054610d45906001600160a01b03168484613d44565b61265f83338385612c95565b505050565b60005b60018451612675919061492a565b81101561281a576126c48482815181106126915761269161493d565b6020026020010151858360016126a79190614c21565b815181106126b7576126b761493d565b6020026020010151612ae6565b6001600160a01b031663e9dcafaa846126de846001614c21565b815181106126ee576126ee61493d565b6020026020010151868460016127049190614c21565b815181106127145761271461493d565b60200260200101516002885161272a919061492a565b851461277a576127758861273f876001614c21565b8151811061274f5761274f61493d565b6020026020010151898760026127659190614c21565b8151811061081f5761081f61493d565b61277c565b855b604080516000815260208101918290527fffffffff0000000000000000000000000000000000000000000000000000000060e087901b169091526127c69392919060248101614c34565b6020604051808303816000875af11580156127e5573d6000803e3d6000fd5b505050506040513d601f19601f820116820180604052508101906128099190614c08565b5061281381614953565b9050612667565b50505050565b604051632e1a7d4d60e01b8152600481018290527f00000000000000000000000000000000000000000000000000000000000000006001600160a01b031690632e1a7d4d90602401600060405180830381600087803b15801561288257600080fd5b505af1158015612896573d6000803e3d6000fd5b505050506000826001600160a01b0316826040515b60006040518083038185875af1925050503d80600081146128e8576040519150601f19603f3d011682016040523d82523d6000602084013e6128ed565b606091505b505090508061265f5760405162461bcd60e51b815260206004820152601660248201527f56535741503a205452414e53464552204641494c4544000000000000000000006044820152606401610234565b60008061294b8387614c66565b905060006129598583614c66565b905060008261296a6103e889614c66565b6129749190614c21565b90506129808183614c93565b98975050505050505050565b6000806103e861299c8787614c66565b6129a69190614c66565b90506000836129b5888761492a565b6129bf9190614c66565b90506129cb8183614c93565b61119d906001614c21565b81471015612a325760405162461bcd60e51b8152602060048201526024808201527f56535741503a20494e53554646494349454e545f4554485f494e5055545f414d60448201526313d5539560e21b6064820152608401610234565b7f00000000000000000000000000000000000000000000000000000000000000006001600160a01b031663d0e30db0836040518263ffffffff1660e01b81526004016000604051808303818588803b158015612a8d57600080fd5b505af1158015612aa1573d6000803e3d6000fd5b5050505050612ad17f00000000000000000000000000000000000000000000000000000000000000008284613de7565b6000336001600160a01b0316476040516128ab565b6000610d45838361263b565b600080856001600160a01b0316856001600160a01b031614612b15578284612b18565b83835b9097909650945050505050565b604080516000815260208101918290526318064a3d60e11b9091526001600160a01b0384169063300c947a90612b649087908690869060248101614c34565b6020604051808303816000875af1158015612b83573d6000803e3d6000fd5b505050506040513d601f19601f82011682018060405250810190612ba79190614c08565b5050505050565b6060610d458383604051806060016040528060278152602001614d3860279139613e17565b6000808411612c245760405162461bcd60e51b815260206004820152601a60248201527f56535741503a20494e53554646494349454e545f414d4f554e540000000000006044820152606401610234565b600083118015612c345750600082115b612c805760405162461bcd60e51b815260206004820152601d60248201527f56535741503a20494e53554646494349454e545f4c49515549444954590000006044820152606401610234565b82612c8b8386614c66565b6123709190614c93565b6040516001600160a01b038085166024830152831660448201526064810182905261281a9085906323b872dd60e01b906084015b60408051601f198184030181529190526020810180517bffffffffffffffffffffffffffffffffffffffffffffffffffffffff167fffffffff0000000000000000000000000000000000000000000000000000000090931692909217909152613e8f565b6000612d85604051806101400160405280600081526020016000815260200160008152602001600081526020016000815260200160008152602001600081526020016000815260200160008152602001600081525090565b826000015162ffffff168160000181815250508260c001516001600160a01b031663da33b3df6040518163ffffffff1660e01b8152600401602060405180830381865afa158015612dda573d6000803e3d6000fd5b505050506040513d601f19601f82011682018060405250810190612dfe9190614cb5565b6001600160701b03168160200181815250508260c001516001600160a01b03166364be513f6040518163ffffffff1660e01b8152600401602060405180830381865afa158015612e52573d6000803e3d6000fd5b505050506040513d601f19601f82011682018060405250810190612e769190614cb5565b6001600160701b0316816040018181525050826060015181606001818152505082608001518160800181815250508260c001516001600160a01b031663d5d7b44b6040518163ffffffff1660e01b8152600401602060405180830381865afa158015612ee6573d6000803e3d6000fd5b505050506040513d601f19601f82011682018060405250810190612f0a9190614c08565b8160a00181815250506103e862ffffff168160c00181815250508260c001516001600160a01b031663268c74e46040518163ffffffff1660e01b8152600401602060405180830381865afa158015612f66573d6000803e3d6000fd5b505050506040513d601f19601f82011682018060405250810190612f8a9190614c08565b60e082015260c0830151602084015160405163359af54960e21b81526001600160a01b03918216600482015291169063d66bd52490602401602060405180830381865afa158015612fdf573d6000803e3d6000fd5b505050506040513d601f19601f820116820180604052508101906130039190614c08565b61010082015260c083015160208401516040516377c6a71560e01b81526001600160a01b0391821660048201529116906377c6a71590602401602060405180830381865afa158015613059573d6000803e3d6000fd5b505050506040513d601f19601f8201168201806040525081019061307d9190614c08565b8360c001516001600160a01b0316639860691c6040518163ffffffff1660e01b8152600401602060405180830381865afa1580156130bf573d6000803e3d6000fd5b505050506040513d601f19601f820116820180604052508101906130e39190614c08565b6130ed919061492a565b61012082015260208101511580159061311857506d04ee2d6d415b85acef8100000000816020015111155b6131645760405162461bcd60e51b815260206004820152601060248201527f696e76616c69642062616c616e636530000000000000000000000000000000006044820152606401610234565b6000816040015111801561318a57506d04ee2d6d415b85acef8100000000816040015111155b6131d65760405162461bcd60e51b815260206004820152601060248201527f696e76616c69642062616c616e636531000000000000000000000000000000006044820152606401610234565b600081606001511180156131fc57506d04ee2d6d415b85acef8100000000816060015111155b6132485760405162461bcd60e51b815260206004820152601160248201527f696e76616c6964207642616c616e6365300000000000000000000000000000006044820152606401610234565b6000816080015111801561326e57506d04ee2d6d415b85acef8100000000816080015111155b6132ae5760405162461bcd60e51b8152602060048201526011602482015270696e76616c6964207642616c616e63653160781b6044820152606401610234565b8060c001516103e8146133035760405162461bcd60e51b815260206004820152601660248201527f696e76616c6964207072696365466565466163746f72000000000000000000006044820152606401610234565b8060a00151620186a0146133595760405162461bcd60e51b815260206004820152601a60248201527f696e76616c69642072657365727665526174696f466163746f720000000000006044820152606401610234565b80511580159061336e575060c0810151815111155b6133ba5760405162461bcd60e51b815260206004820152600b60248201527f696e76616c6964206665650000000000000000000000000000000000000000006044820152606401610234565b60008160e001511180156133d657508060a001518160e0015111155b6134225760405162461bcd60e51b815260206004820152601760248201527f696e76616c6964206d617852657365727665526174696f0000000000000000006044820152606401610234565b60e08101516020820151613437906002614c66565b6134419190614c66565b81610120015111156134565750600092915050565b600083604001516001600160a01b03168460c001516001600160a01b0316630dfe16816040518163ffffffff1660e01b8152600401602060405180830381865afa1580156134a8573d6000803e3d6000fd5b505050506040513d601f19601f820116820180604052508101906134cc919061497c565b6001600160a01b031603613991578160200151826080015111156135265760405162461bcd60e51b8152602060048201526011602482015270696e76616c6964207642616c616e63653160781b6044820152606401610234565b60a08201516080830151610100840151610120850151855160c0870151848602956000959481029094029392830292028161356357613563614c7d565b048660e0015160020201866080015102018560e0015186602001510260011902018560600151020190506000846000015185606001518660c0015102816135ac576135ac614c7d565b0490506000856060015186610120015102866080015187610100015102018660a001510286606001518760e0015188602001510202600202039050600080600083126135fa57600183613601565b6000836000035b60608a01519850909250905085870260020285016000808083126136275760008361362e565b6001836000035b91509150846136605761364a613645888684613f74565b614023565b61365a6136458b8d8e0285613f74565b03613680565b61366e613645888684613f74565b61367e6136458b8d8e0285613f74565b015b9950811561368f578960000399505b878a8a60020202019250600083126136a9576000836136b0565b6001836000035b9092509050846136de576136c8613645888684613f74565b6136d86136458b8d8e0285613f74565b036136fe565b6136ec613645888684613f74565b6136fc6136458b8d8e0285613f74565b015b9950811561370d578960000399505b878a8a60020202019250600083126137275760008361372e565b6001836000035b90925090508461375c57613746613645888684613f74565b6137566136458b8d8e0285613f74565b0361377c565b61376a613645888684613f74565b61377a6136458b8d8e0285613f74565b015b9950811561378b578960000399505b878a8a60020202019250600083126137a5576000836137ac565b6001836000035b9092509050846137da576137c4613645888684613f74565b6137d46136458b8d8e0285613f74565b036137fa565b6137e8613645888684613f74565b6137f86136458b8d8e0285613f74565b015b99508115613809578960000399505b878a8a60020202019250600083126138235760008361382a565b6001836000035b90925090508461385857613842613645888684613f74565b6138526136458b8d8e0285613f74565b03613878565b613866613645888684613f74565b6138766136458b8d8e0285613f74565b015b99508115613887578960000399505b878a8a60020202019250600083126138a1576000836138a8565b6001836000035b9092509050846138d6576138c0613645888684613f74565b6138d06136458b8d8e0285613f74565b036138f6565b6138e4613645888684613f74565b6138f46136458b8d8e0285613f74565b015b99508115613905578960000399505b878a8a600202020192506000831261391f57600083613926565b6001836000035b9092509050846139545761393e613645888684613f74565b61394e6136458b8d8e0285613f74565b03613974565b613962613645888684613f74565b6139726136458b8d8e0285613f74565b015b99508115613983578960000399505b505050505050505050613a31565b8160400151826080015111156139dd5760405162461bcd60e51b8152602060048201526011602482015270696e76616c6964207642616c616e63653160781b6044820152606401610234565b6139eb826101000151614023565b613a2d61364584606001518560400151028561012001518660a00151028660e001518760200151600202020386608001518760a0015188602001510202613f74565b0390505b6000811215610d4557610d45614cd0565b600080546040516334a2a5c360e11b81526001600160a01b0389811660048301528881166024830152839283929116906369454b8690604401602060405180830381865afa158015613a98573d6000803e3d6000fd5b505050506040513d601f19601f82011682018060405250810190613abc919061497c565b90506001600160a01b038116613b47576000546040516364e329cb60e11b81526001600160a01b038b811660048301528a811660248301529091169063c9c65396906044016020604051808303816000875af1158015613b20573d6000803e3d6000fd5b505050506040513d601f19601f82011682018060405250810190613b44919061497c565b90505b600080826001600160a01b031662113e086040518163ffffffff1660e01b81526004016040805180830381865afa158015613b86573d6000803e3d6000fd5b505050506040513d601f19601f82011682018060405250810190613baa9190614afa565b6001600160701b031691506001600160701b03169150613c2d836001600160a01b0316630dfe16816040518163ffffffff1660e01b8152600401602060405180830381865afa158015613c01573d6000803e3d6000fd5b505050506040513d601f19601f82011682018060405250810190613c25919061497c565b8c8484612af2565b909250905081158015613c3e575080155b15613c4e57889450879350613d36565b6000613c5b8a8484612bd3565b9050888111613cbf5786811015613cb45760405162461bcd60e51b815260206004820152601c60248201527f56535741503a20494e53554646494349454e545f425f414d4f554e54000000006044820152606401610234565b899550935083613d34565b6000613ccc8a8486612bd3565b90508a811115613cde57613cde614cd0565b88811015613d2e5760405162461bcd60e51b815260206004820152601c60248201527f56535741503a20494e53554646494349454e545f415f414d4f554e54000000006044820152606401610234565b95508894505b505b505096509650969350505050565b600080613d5184846140bf565b6040517fff0000000000000000000000000000000000000000000000000000000000000060208201526bffffffffffffffffffffffff19606088901b166021820152603581018290527f637bc1e6555f050fef1c3804f2f03647a960ac0a39ac52c519c3c6d9da312ae0605582015290915060750160408051601f19818403018152919052805160209091012095945050505050565b6040516001600160a01b03831660248201526044810182905261265f90849063a9059cbb60e01b90606401612cc9565b6060600080856001600160a01b031685604051613e349190614ce6565b600060405180830381855af49150503d8060008114613e6f576040519150601f19603f3d011682016040523d82523d6000602084013e613e74565b606091505b5091509150613e858683838761410c565b9695505050505050565b6000613ee4826040518060400160405280602081526020017f5361666545524332303a206c6f772d6c6576656c2063616c6c206661696c6564815250856001600160a01b03166141859092919063ffffffff16565b80519091501561265f5780806020019051810190613f029190614d02565b61265f5760405162461bcd60e51b815260206004820152602a60248201527f5361666545524332303a204552433230206f7065726174696f6e20646964206e60448201527f6f742073756363656564000000000000000000000000000000000000000000006064820152608401610234565b6000808060001985870985870292508281108382030391505080600003613fae57838281613fa457613fa4614c7d565b0492505050610d45565b808411613fba57600080fd5b60008486880960026001871981018816978890046003810283188082028403028082028403028082028403028082028403028082028403029081029092039091026000889003889004909101858311909403939093029303949094049190911702949350505050565b60007f7fffffffffffffffffffffffffffffffffffffffffffffffffffffffffffffff8211156140bb5760405162461bcd60e51b815260206004820152602860248201527f53616665436173743a2076616c756520646f65736e27742066697420696e206160448201527f6e20696e743235360000000000000000000000000000000000000000000000006064820152608401610234565b5090565b60008060006140ce8585614194565b604080516001600160a01b03938416602080830191909152929093168382015280518084038201815260609093019052815191012095945050505050565b6060831561417b578251600003614174576001600160a01b0385163b6141745760405162461bcd60e51b815260206004820152601d60248201527f416464726573733a2063616c6c20746f206e6f6e2d636f6e74726163740000006044820152606401610234565b5081612370565b61237083836141c6565b606061237084846000856141f0565b600080826001600160a01b0316846001600160a01b0316106141b75782846141ba565b83835b915091505b9250929050565b8151156141d65781518083602001fd5b8060405162461bcd60e51b81526004016102349190614d24565b6060824710156142685760405162461bcd60e51b815260206004820152602660248201527f416464726573733a20696e73756666696369656e742062616c616e636520666f60448201527f722063616c6c00000000000000000000000000000000000000000000000000006064820152608401610234565b600080866001600160a01b031685876040516142849190614ce6565b60006040518083038185875af1925050503d80600081146142c1576040519150601f19603f3d011682016040523d82523d6000602084013e6142c6565b606091505b509150915061119d8783838761410c565b634e487b7160e01b600052604160045260246000fd5b604051610100810167ffffffffffffffff81118282101715614311576143116142d7565b60405290565b604051601f8201601f1916810167ffffffffffffffff81118282101715614340576143406142d7565b604052919050565b600067ffffffffffffffff821115614362576143626142d7565b5060051b60200190565b6001600160a01b038116811461438157600080fd5b50565b600082601f83011261439557600080fd5b813560206143aa6143a583614348565b614317565b82815260059290921b840181019181810190868411156143c957600080fd5b8286015b848110156143ed5780356143e08161436c565b83529183019183016143cd565b509695505050505050565b600080600080600060a0868803121561441057600080fd5b853567ffffffffffffffff81111561442757600080fd5b61443388828901614384565b955050602086013593506040860135925060608601356144528161436c565b949793965091946080013592915050565b6000806040838503121561447657600080fd5b823567ffffffffffffffff81111561448d57600080fd5b61449985828601614384565b95602094909401359450505050565b6020808252825182820181905260009190848201906040850190845b818110156144e0578351835292840192918401916001016144c4565b50909695505050505050565b6000602082840312156144fe57600080fd5b8135610d458161436c565b6000806040838503121561451c57600080fd5b82356145278161436c565b915060208301356145378161436c565b809150509250929050565b6020808252825182820181905260009190848201906040850190845b818110156144e0576145d483855162ffffff815116825260208101516001600160a01b03808216602085015280604084015116604085015260608301516060850152608083015160808501528060a08401511660a08501528060c08401511660c08501528060e08401511660e085015250505050565b92840192610100929092019160010161455e565b6000806000606084860312156145fd57600080fd5b83356146088161436c565b925060208401356146188161436c565b929592945050506040919091013590565b600080600080600080600060e0888a03121561464457600080fd5b873561464f8161436c565b9650602088013561465f8161436c565b9550604088013561466f8161436c565b9450606088013593506080880135925060a088013561468d8161436c565b8092505060c0880135905092959891949750929550565b61010081016120fc828462ffffff815116825260208101516001600160a01b03808216602085015280604084015116604085015260608301516060850152608083015160808501528060a08401511660a08501528060c08401511660c08501528060e08401511660e085015250505050565b6000806020838503121561472957600080fd5b823567ffffffffffffffff8082111561474157600080fd5b818501915085601f83011261475557600080fd5b81358181111561476457600080fd5b8660208260051b850101111561477957600080fd5b60209290920196919550909350505050565b60005b838110156147a657818101518382015260200161478e565b50506000910152565b600081518084526147c781602086016020860161478b565b601f01601f19169290920160200192915050565b6000602080830181845280855180835260408601915060408160051b870101925083870160005b8281101561483057603f1988860301845261481e8583516147af565b94509285019290850190600101614802565b5092979650505050505050565b600080600080600080600060e0888a03121561485857600080fd5b87356148638161436c565b965060208801356148738161436c565b955060408801359450606088013593506080880135925060a088013561468d8161436c565b600080600080600080600080610100898b0312156148b557600080fd5b88356148c08161436c565b975060208901356148d08161436c565b965060408901359550606089013594506080890135935060a0890135925060c08901356148fc8161436c565b8092505060e089013590509295985092959890939650565b634e487b7160e01b600052601160045260246000fd5b818103818111156120fc576120fc614914565b634e487b7160e01b600052603260045260246000fd5b60006001820161496557614965614914565b5060010190565b80516149778161436c565b919050565b60006020828403121561498e57600080fd5b8151610d458161436c565b6000816149a8576149a8614914565b506000190190565b600061010082840312156149c357600080fd5b6149cb6142ed565b9050815162ffffff811681146149e057600080fd5b81526149ee6020830161496c565b60208201526149ff6040830161496c565b60408201526060820151606082015260808201516080820152614a2460a0830161496c565b60a0820152614a3560c0830161496c565b60c0820152614a4660e0830161496c565b60e082015292915050565b60006020808385031215614a6457600080fd5b825167ffffffffffffffff811115614a7b57600080fd5b8301601f81018513614a8c57600080fd5b8051614a9a6143a582614348565b81815260089190911b82018301908381019087831115614ab957600080fd5b928401925b8284101561119d57614ad088856149b0565b8252848201915061010084019350614abe565b80516001600160701b038116811461497757600080fd5b60008060408385031215614b0d57600080fd5b614b1683614ae3565b9150614b2460208401614ae3565b90509250929050565b600060208284031215614b3f57600080fd5b815161ffff81168114610d4557600080fd5b60008060408385031215614b6457600080fd5b8251614b6f8161436c565b60208401519092506145378161436c565b60006101008284031215614b9357600080fd5b610d4583836149b0565b6000808335601e19843603018112614bb457600080fd5b83018035915067ffffffffffffffff821115614bcf57600080fd5b6020019150368190038213156141bf57600080fd5b60008060408385031215614bf757600080fd5b505080516020909101519092909150565b600060208284031215614c1a57600080fd5b5051919050565b808201808211156120fc576120fc614914565b84815260006001600160a01b03808616602084015280851660408401525060806060830152613e8560808301846147af565b80820281158282048414176120fc576120fc614914565b634e487b7160e01b600052601260045260246000fd5b600082614cb057634e487b7160e01b600052601260045260246000fd5b500490565b600060208284031215614cc757600080fd5b610d4582614ae3565b634e487b7160e01b600052600160045260246000fd5b60008251614cf881846020870161478b565b9190910192915050565b600060208284031215614d1457600080fd5b81518015158114610d4557600080fd5b602081526000610d4560208301846147af56fe416464726573733a206c6f772d6c6576656c2064656c65676174652063616c6c206661696c6564a164736f6c6343000812000a",
  "linkReferences": {},
  "deployedLinkReferences": {}
}